:1040000000000320454301004143010041430100FA
:104010004143010041430100414301000000000011
:10402000000000000000000000000000414301000B
:104030004143010000000000414301001D3A01001E
:10404000414301004143010041430100414301005C
:10405000414301004143010041430100414301004C
:10406000414301004143010041430100414301003C
:10407000B1510100B9510100C1510100C951010004
:10408000D1510100D9510100E1510100E951010074
:10409000F1510100F95101000152010009520100E2
:1040A0001152010019520100215201002952010050
:1040B0004143010041430100414301004D4C0100D7
:1040C000514C0100554C0100594C01005D4C010060
:1040D00041430100414301004143010041430100CC
:1040E00041430100414301004143010041430100BC
:1040F0000000000041430100514901004D49010009
:10410000494901003D490100694901006549010033
:104110006149010055490100814901007D490100C3
:10412000794901006D490100994901009549010053
:104130009149010085490100B1490100AD490100E3
:10414000A94901009D490100C9490100C549010073
:10415000C1490100B5490100000000000000000055
:10416000000000000000000000000000000000004F
:10417000000000000000000000000000000000003F
:10418000414301004143010041430100414301001B
:104190000000000041430100414301004143010090
:1041A00041430100414301004143010041430100FB
:1041B00041430100414301004143010041430100EB
:1041C00041430100414301004143010041430100DB
:1041D000414301000000000000000000000000005A
:1041E0000000000000000000000000002944010061
:1041F00049440100654401008144010000000000C1
:104200000000000000000000000000004143010029
:10421000414301004143010041430100414301008A
:10422000414301004143010041430100414301007A
:10423000414301004143010041430100414301006A
:1042400000000000414301004143010041430100DF
:10425000414301004143010041430100414301004A
:10426000000000007CB0EE877CB0EE87FF00FF000E
:10427000FF00FF00FF00FF00FF00FF00FF00FF0046
:10428000FF00FF00FF00FF00FF00FF00FF00FF0036
:10429000FF00FF00FF00FF00FF00FF000000000024
:1042A0002DE9F04F0378202B83B00446894603D1D3
:1042B00014F8013F202BFBD02B2B08BF013494F8BE
:1042C00000E0BEF12D0F00F086809FED577BBEF120
:1042D000300F8DED007B00F08A80BEF1000F00F002
:1042E0009D80002600274FF0000ADFF84CB14FF008
:1042F00000081CE011F0CEF906460F46284611F0E2
:1043000063F932463B4611F013F8524606460F4613
:104310005B46DDE90001B8F1000F03D011F0E4FACB
:10432000CDE9000114F801EFBEF1000F14D0AEF199
:104330003005092D52465B4630463946DAD9B8F188
:10434000000F18D1BEF12E0F15D114F801EF4FF068
:104350000108BEF1000FEAD132463B46DDE900011B
:1043600011F098F906460F46C9F800403046394624
:1043700003B0BDE8F08F0EF0DF0EBEF1450F08D0A0
:104380002378202B03D114F8013F202BFBD0002BE6
:1043900041D1DDE900233046394611F07BF923781D
:1043A00006460F46002BDFD04946601C0A2212F059
:1043B000C9FF21490246002011F0CCFC02460B4601
:1043C0003046394611F066F906460F463046394602
:1043D00003B0BDE8F08F94F801E09FED157BBEF1CE
:1043E000300F8DED007B04F101047FF476AF63782C
:1043F00043F02003782B7FF474AF10224946204607
:1044000012F0A0FF11F0E0F8DDE9002311F042F90D
:1044100006460F46AAE70026084FA7E70026002712
:104420009AE700BFAFF30080000000000000F03FFB
:10443000000000000000F0BF000024400000F87FF2
:104440002DE9F04F002383B01446002206460F46A4
:1044500011F092FB002876D1002200233046394625
:1044600011F080FB30B1302200232270637003B062
:10447000BDE8F08F3046394612F0DEF911F0BAFB94
:104480004CA3D3E90023054601903946304611F08C
:1044900087FB00285ED1019A4549002011F05AFCA3
:1044A00002460B463046394611F01EFA01250646F3
:1044B0000F46DFF8FC904FF0000A4FF00008394635
:1044C000304611F097FB00F130032370834611F062
:1044D0007BF802460B463046394610F027FF4B4624
:1044E000424611F0D7F8013D04BF2E236370064603
:1044F0000F4614BF01340234BAF1000F06D1BBF1EC
:10450000000F0CBFDA464FF0010AD8E70AF1010AA2
:10451000BAF1100FD3DD002DD1DC14F8013C302BA3
:1045200004F1FF3403D114F8013D302BFBD0019886
:104530002E2B08BF04F1FF34012827D1002363701C
:1045400003B0BDE8F08F07F100431F462D23237011
:10455000013481E714A3D3E900233046394611F032
:104560000BFB002897D0002D18DD2A4600201049AB
:1045700011F0F0FB0B4602463946304611F0B4F913
:104580000123013506460F46019392E76523A11CDE
:10459000637003B0BDE8F04F0BF0B6BA012501958A
:1045A00087E700BFAFF3008050EFE2D6E41A4B4438
:1045B000000024408DEDB5A0F7C6B03E000000001D
:1045C00070B54FF0FF3005F0B7F804466FF07F404C
:1045D00005F0B2F80646204610F0E6FF00220C4B2C
:1045E00011F058F8044630460D4610F0DDFF06A3E2
:1045F000D3E9002311F078F902460B4620462946FC
:1046000010F096FE70BD00BF0000E0DFFFFF6F43BB
:104610000000F03D000000004F4A21F000439342AB
:104620002DE970430D4604464FDC4C4A93420E463A
:104630000FDC45A3D3E9002310F07AFE0022484B9B
:1046400011F0B8FA002856D02B4620461946BDE88E
:104650007083444A934242DCB3F1804F4BDD11F04A
:104660006FFD2246804689462B462046294611F09A
:1046700011F800223A4B10F05BFE12F0B5FC024636
:104680000B464046494610F053FE02460B460020BA
:10469000334911F029F9424604460D464B4640463F
:1046A000494610F045FE0B4602462946204610F0CA
:1046B0003FFE01F0FDFE04460B46002E0BDC03F12D
:1046C000004320461946BDE870830B46024610F0B1
:1046D0002FFE04460B4620461946BDE8708311F0B4
:1046E0002FFD01F0E5FE1AA3D3E9002310F020FE10
:1046F00004460B46E1E722462B462046294610F0A9
:10470000C9FF804689462046294611F019FD00223E
:104710000446134B0D464046494610F009FE12F080
:1047200063FC00220E4B10F003FE02460B4640468F
:10473000494611F0D9F822462B4610F0F9FD00F059
:10474000D3FA04460B46B8E79C7500883CE4377EF4
:10475000EF39FAFE422EE63FFFFFEF7FFFFF2F3ECD
:104760000000F03F0000B0412DE9F84FC24B21F0AE
:1047700000469E420D468A46044610DDBF4B9E42CF
:1047800000F3B58000F0B080BD4BBE49BE4CBAF11D
:10479000000FD8BF0B4620461946BDE8F88FBB4B2B
:1047A0009E4200F3C180A3F1DE739E4240F3AB80D2
:1047B0004FF0FF3B22462B462046294610F06AFF69
:1047C00002460B468046894610F064FF92A3D3E967
:1047D000002306460F4610F05DFF91A3D3E90023A6
:1047E00010F0A6FD32463B4610F054FF8EA3D3E9ED
:1047F000002310F09DFD32463B4610F04BFF8CA38A
:10480000D3E9002310F094FD32463B4610F042FFFE
:1048100089A3D3E9002310F08BFD32463B4610F00C
:1048200039FF87A3D3E9002310F082FD42464B46AF
:1048300010F030FF84A3D3E9002380468946304638
:10484000394610F027FF82A3D3E9002310F06EFD54
:1048500032463B4610F01EFF7FA3D3E9002310F041
:1048600065FD32463B4610F015FF7DA3D3E90023DA
:1048700010F05CFD32463B4610F00CFF7AA3D3E902
:10488000002310F053FD32463B4610F003FFBBF10E
:10489000FF3F02460B466ED04046494610F048FDA9
:1048A00022462B4610F0F6FE794E7A4B4FEACB0BA0
:1048B0005E449B44DBE9002310F038FD22462B4682
:1048C00010F034FD0B460246D6E9000110F02EFD33
:1048D000BAF1000F04460B46BFF65DAF01F100438D
:1048E00020461946BDE8F88F00283FF44DAF224618
:1048F0002B462046294610F01BFD04460B46204659
:104900001946BDE8F88F5AA3D3E9002310F010FD33
:104910000022614B11F04EF900283FF449AF2B46BD
:1049200020461946BDE8F88F11F00AFC5B4B9E4209
:1049300004460D4630DCA3F550239E4255DC02466A
:104940000B4610F0F5FC0022534B10F0EFFC002258
:1049500006460F464FF080432046294610F0E8FCFB
:1049600002460B463046394610F0BEFF4FF0000BB2
:1049700004460D461EE74046494610F0D9FC224643
:104980002B4610F087FE0B4602462946204610F0C3
:10499000CDFC04460B46FEE6414B9E421ADC00224B
:1049A000404B10F0C3FC002206460F463D4B20460C
:1049B000294610F06FFE0022374B10F0B9FC02467A
:1049C0000B463046394610F08FFF4FF0020B04467D
:1049D0000D46EFE602460B460020334910F084FFF7
:1049E0004FF0030B04460D46E4E600222A4B10F07C
:1049F0009DFC002206460F46274B2046294610F014
:104A000097FC02460B463046394610F06DFF4FF0DA
:104A1000010B04460D46CDE611DA22E33AAD903F94
:104A2000EB0D76244B7BA93F513DD0A0660DB13FE5
:104A30006E204CC5CD45B73FFF8300922449C23F4D
:104A40000D5555555555D53F2F6C6A2C44B4A2BF12
:104A50009AFDDE522DDEAD3F6D9A74AFF2B0B33FDA
:104A6000711623FEC671BC3FC4EB98999999C93F52
:104A70009C7500883CE4377EFFFF0F440000F07F08
:104A8000FB21F93FFB21F9BF182D4454FFFFDB3F09
:104A9000C87B0100E87B01000000F03FFFFFF23F10
:104AA000FF7F03400000F83F0000F0BF000000005F
:104AB0002DE9F047C1F30A59A9F2FF36132E0B4630
:104AC0000D46044607468846824622DC002E4FDB10
:104AD0003D4A42FA06F901EA090202431ED038A310
:104AE000D3E9002310F024FC0022002311F062F827
:104AF00050B1002D04DD4FF4801343FA06F6B044A4
:104B000028EA09054FF0000A544629462046BDE828
:104B1000F087332E06DDB6F5806F3DD0194620466E
:104B2000BDE8F087A9F213494FF0FF3222FA09F9E4
:104B300010EA090FF2D022A3D3E9002310F0F8FB0A
:104B40000022002311F036F80028DDD0002D09DD09
:104B5000142E2FD00123C6F1340603FA06F63719B6
:104B600028BF9844454627EA090A54462946CDE716
:104B700013A3D3E9002310F0DBFB0022002311F084
:104B800019F80028C0D0002D0FDB55EA040709D022
:104B90004FF0000A0D4DB7E702460B4610F0C8FB78
:104BA0000446BCE7BA463D46AEE74FF0000A4FF078
:104BB0000045A9E705F10108D4E700BFAFF3008085
:104BC0009C7500883CE4377EFFFF0F000000F03F3B
:104BD000C1F30A522DE9F843A2F2FF36132E0B4619
:104BE0000D460446884607461DDC002E40DB3C4A45
:104BF00042FA06F901EA09020243864618D036A3B2
:104C0000D3E9002310F094FB0022002310F0D2FF20
:104C100020B1002D42DB28EA090500273C46294641
:104C20002046BDE8F883332E06DDB6F5806F2FD021
:104C300019462046BDE8F883A2F213424FF0FF392F
:104C400029FA02F910EA090FF2D023A3D3E90023CD
:104C500010F06EFB0022002310F0ACFF0028DDD026
:104C6000002D21DB454627EA09073C462946D7E7C0
:104C700019A3D3E9002310F05BFB0022002310F0FE
:104C800099FF0028CAD0002D19DB00273D46C5E753
:104C900002460B4610F04CFB0446CAE74FF4801363
:104CA00043FA06F6B044B6E7142E10D00123C6F13D
:104CB000340603FA06F6371928BF9844D2E725F0E0
:104CC0000042084B224318BF1D460027A6E705F106
:104CD0000108C7E7AFF300809C7500883CE4377E8D
:104CE000FFFF0F000000F0BF2DE9F04FD64B9942B7
:104CF00089B00E460F46824613DCD44B21F00044A7
:104D00009C4218DD0022D24B10F02CFF002879D0F5
:104D1000002200230020CF4910F0E6FD09B0BDE8D5
:104D2000F08FCD4B99422FDD5246334610F000FBF9
:104D300009B0BDE8F08FC94B9C4270DDC84B1F44E1
:104D40009F427ED8504631460022C64B10F0F0FA02
:104D50004FEA215BABF2FF3BBBF1000F04460D466F
:104D60000F4640F3E0815246334610F0DFFA024628
:104D70000B460020BB4910F0D9FA22462B4610F012
:104D8000B3FDCDE900010BE0B74B9F42DADD002215
:104D90000023CDE900234FEA275B5446ABF2FF3BEB
:104DA000B24BC7F313079F4247F07F5500F3E780EC
:104DB00045F44015204629460022AA4B10F0B6FAC9
:104DC000002204460D46AA4B10F064FC22462B46F6
:104DD00010F060FCA246CDE902012E4680468946CD
:104DE000002F3AD1002200232046294610F0BAFEB7
:104DF000002800F0CE80BBF1000F40F0768100204B
:104E0000014695E7524633465046314610F08EFA39
:104E100002460B4610F068FD09B0BDE8F08F002295
:104E2000944B10F085FA0022002310F0C3FE0028F6
:104E300000F0CC80904B9C4200F3C8805046314635
:104E400076E700228A4B10F025FC5246334610F0DC
:104E500021FC4FF0000B8046894600224FF0804332
:104E60005046314610F064FA02460B465046314631
:104E700010F03AFD02460B46CDE9022310F00AFC81
:104E80005DA3D3E9002304460D4610F003FC5CA3A8
:104E9000D3E9002310F04CFA22462B4610F0FAFB1F
:104EA00059A3D3E9002310F043FA22462B4610F011
:104EB000F1FB57A3D3E9002310F03AFA22462B4620
:104EC00010F0E8FB54A3D3E9002310F031FA224696
:104ED0002B4610F0DFFB52A3D3E9002310F028FA91
:104EE00022462B4610F0D6FB4FA3D3E9002310F047
:104EF0001FFA22462B4610F0CDFB04460D46BBF1AF
:104F0000000F00F0BB80584610F05EFB48A3D3E9C9
:104F10000023CDE9040110F0BDFB4246CDE90601B6
:104F20004B462046294610F003FADDE9022310F033
:104F3000B1FB41A3D3E9002304460D46DDE904019A
:104F400010F0A8FBDDE9002310F0F2F902460B4651
:104F50002046294610F0ECF902460B4640464946E9
:104F600010F0E4F95246334610F0E0F902460B46E1
:104F7000DDE9060110F0DAF909B0BDE8F08F45F47B
:104F80000015C7F5801720462946BF100BF1010B0D
:104F900012E72BA3D3E900232046294610F07AFB21
:104FA00002460B4600202F4910F0C0F9DDE902232C
:104FB00010F070FB06460F46BBF1000F6DD10246A4
:104FC0000B462046294610F0B1F9B1E65246334669
:104FD0005046314610F05EFB0022254B10F05AFB84
:104FE00002460B465046314610F0A0F909B0BDE824
:104FF000F08F00BFAFF3008044523EDF12F1C23F9A
:105000009FC678D0099AC33FDE03CB966446C73F5C
:10501000AF788E1DC571CC3F599322942449D23F5D
:1050200004FA97999999D93F935555555555E53FA8
:105030000000E0FE422EE63F763C7935EF39EA3D4E
:10504000555555555555E53F7982DA3FFFFFEF3FFE
:105050000000F0BF000050C3FFFFEF7FFFFF1F3EC7
:105060003C412D400000F03FFFFF3F439DA0060064
:105070000000E03F00005043FFFF8F3C42464B469C
:1050800010F056F9DDE9022310F004FB02460B464E
:105090004046494610F04AF9A2E7584610F094FA03
:1050A00027A3D3E9002382468B4610F0F3FA26A308
:1050B000D3E90023804689465046594610F0EAFA63
:1050C000DDE9002310F034F902460B46304639463C
:1050D00010F02CF922462B4610F028F902460B4618
:1050E0004046494610F022F922E6584610F06CFA84
:1050F00015A3D3E9002306460F4610F0CBFADDE9ED
:10510000002310F015F90EA3D3E9002304460D4641
:105110003046394610F0BEFA02460B462046294674
:1051200010F006F904E60022094B10F0FFF80246E1
:105130000B465046314610F0F9F81EE6AFF30080FA
:105140000000E0FE422EE63F763C7935EF39EA3D3D
:105150000000F03F0000000008B511F0F1FA04A3D0
:10516000D3E9002310F0C0FB08BD00BFAFF30080FF
:10517000EF39FAFE422EE63F2DE9F043DFF8B48026
:105180008BB004460D4600F06BFF98F900300133F8
:1051900006460F462BD022462B462046294610F0C5
:1051A00013FD814618BB2046294610F0C9FF1CA3F9
:1051B000D3E9002310F0FEFCC8B11B4A98F9003077
:1051C000CDF820900321CDE90445CDE902458DE8D5
:1051D00006008BB9154B4FF06042CDE906236846B7
:1051E00011F0C4FF70B1089B9BB9DDE9066730463A
:1051F00039460BB0BDE8F0830D490020022BCDE904
:105200000601ECD112F05AF822230360089B002B10
:10521000EBD012F053F8089B0360E6E7AFF3008091
:105220007DF8B98FCE33864050870100FFFFEF47EE
:105230000000F07FFE0100202DE9F043DFF8E4805C
:105240008BB004460D4600F0BBFF98F900300133E7
:1052500006460F4633D02046294611F081FF70B331
:1052600029A3D3E900232046294610F0A3FC814658
:1052700050BB27A3D3E900232046294610F07CFC2D
:10528000E8B198F90030244ACDF820900426002097
:105290000021022BCDE90445CDE90245009601929B
:1052A000CDE9060129D0684611F060FF28B3089BBC
:1052B0001BB112F003F8089B0360DDE90667304676
:1052C00039460BB0BDE8F083134A98F900300192DB
:1052D00003210022CDE90445CDE902450091089261
:1052E0002BB90E4B4FF06042CDE90623DBE70C49AA
:1052F0000020022BCDE90601D5D111F0DFFF2223DA
:105300000360D4E7AFF30080EF39FAFE422E864007
:1053100051302DD5104987C058870100FFFFEF4756
:105320000000F07FFE0100202DE9F84FC44E21F06F
:105330000043B3420C4605460DDD03F1404303F53F
:105340008013034340F0B980002940F340810020DE
:105350000021BDE8F88FBB4EB34240F3A680002980
:10536000C0F2788102460B460020B7490FF0DEFFFD
:105370000022B64B10F08EF904460D4611F034FEB3
:1053800095A3D3E90023894680462946204610F09C
:1053900081F993A3D3E900230FF0CAFF22462B46DD
:1053A00010F078F990A3D3E900230FF0BFFF224655
:1053B0002B4610F06FF98EA3D3E900230FF0B8FF4E
:1053C00022462B4610F066F98BA3D3E900230FF099
:1053D000ADFF22462B4610F05DF989A3D3E90023E7
:1053E0000FF0A6FF22462B4610F054F986A3D3E90E
:1053F000002382468B462046294610F04BF984A3B1
:10540000D3E900230FF092FF22462B4610F042F919
:1054100081A3D3E900230FF08BFF22462B4610F027
:1054200039F97FA3D3E900230FF080FF22462B46F2
:1054300010F030F90022844B0FF07AFF02460B4641
:105440005046594610F050FA42464B4610F022F9A9
:10545000002682468B4632464B463046494610F07F
:1054600019F902460B46204629460FF05FFF3246E7
:1054700004460D464B46404649460FF059FF02464A
:105480000B462046294610F02FFA02460B4650469E
:1054900059460FF04DFF32464B460FF049FF02468A
:1054A0000B460FF045FFBDE8F88F694A93420EDCCA
:1054B0005DA1D1E90001BDE8F88F02460B460FF06F
:1054C00035FF02460B4610F00FFABDE8F88F024692
:1054D0000B4610F0DFF840A3D3E9002306460F4641
:1054E00010F0D8F83EA3D3E900230FF021FF324695
:1054F0003B4610F0CFF83CA3D3E900230FF016FF92
:1055000032463B4610F0C6F839A3D3E900230FF02A
:105510000FFF32463B4610F0BDF837A3D3E9002316
:105520000FF004FF32463B4610F0B4F834A3D3E941
:1055300000230FF0FDFE32463B4610F0ABF832A3DD
:10554000D3E90023804689463046394610F0A2F858
:105550002FA3D3E900230FF0E9FE32463B4610F0BB
:1055600099F82DA3D3E900230FF0E2FE32463B4623
:1055700010F090F82AA3D3E900230FF0D7FE3246AB
:105580003B4610F087F800222F4B0FF0D1FE024669
:105590000B464046494610F0A7F92A46234610F02C
:1055A00079F802460B4622A1D1E900010FF0BEFEB8
:1055B00002460B46284621460FF0B8FE02460B462F
:1055C00019A1D1E900010FF0B1FEBDE8F88F1AA1D1
:1055D000D1E90001BDE8F88F09F7FD0DE13D023F7B
:1055E00088B20175E0EF493F3B8F68B52882A43F40
:1055F0005544880E55C1C93F7D6FEB0312D6D43F89
:10560000555555555555C53F82922EB1C5B8B33F36
:1056100059018D1B6C06E63FC88A599CE52A00405B
:105620004B2D8A1C273A0340182D4454FB21F93F87
:10563000075C143326A6913C182D4454FB210940E5
:10564000FFFFEF3FFFFFDF3F0000F03F0000E03FC4
:105650000000603C00225C4B0FF06AFE00225B4BB6
:1056600010F018F840A3D3E9002304460D4610F0CB
:1056700011F83FA3D3E900230FF05AFE22462B4630
:1056800010F008F83CA3D3E900230FF04FFE2246A8
:105690002B460FF0FFFF3AA3D3E900230FF048FE9B
:1056A00022462B460FF0F6FF37A3D3E900230FF075
:1056B0003DFE22462B460FF0EDFF35A3D3E9002334
:1056C0000FF036FE22462B460FF0E4FF8046894657
:1056D0002046294611F088FC2FA3D3E90023064673
:1056E0000F46204629460FF0D5FF2DA3D3E900230E
:1056F0000FF01CFE22462B460FF0CCFF2AA3D3E965
:1057000000230FF015FE22462B460FF0C3FF28A3FF
:10571000D3E900230FF00AFE22462B460FF0BAFF12
:105720000022294B0FF004FE02460B464046494634
:1057300010F0DAF832463B460FF0ACFF1EA3D3E977
:1057400000230FF0F3FD32463B460FF0F1FD024619
:105750000B460FF0EDFD02460B4619A1D1E9000101
:105760000FF0E4FDBDE8F88F09F7FD0DE13D023FC4
:1057700088B20175E0EF493F3B8F68B52882A43FAE
:105780005544880E55C1C93F7D6FEB0312D6D43FF7
:10579000555555555555C53F82922EB1C5B8B33FA5
:1057A00059018D1B6C06E63FC88A599CE52A0040CA
:1057B0004B2D8A1C273A0340075C143326A6913CE4
:1057C000182D4454FB2109400000F03F0000E03F49
:1057D000434A91422DE9F8430C46054639DD414ADA
:1057E000914209DD02F17952914240DD02460B46B9
:1057F0000FF09EFDBDE8F88301F1404202F58012F2
:10580000024330D0B1F1804F3ADC0022364B0FF02A
:105810008DFD02460B4604460D460FF089FD2246DB
:1058200006460F462B46204629460FF033FF024618
:105830000B46304639460FF07BFD11F0D5FB0B4689
:105840000246294620460FF073FDBDE8F843FFF7F6
:105850004BBA02460B460FF069FD02460B4610F0AC
:1058600043F8BDE8F88300200021BDE8F88300F08C
:105870001FFE19A3D3E900230FF05AFDBDE8F883FA
:1058800002460B460FF006FF0022174B0FF04EFDAD
:1058900011F0AAFB2A46804689462346284621461F
:1058A0000FF046FD424606460F464B462846214627
:1058B0000FF03EFD02460B4600200B4910F014F895
:1058C0000B460246394630460FF030FDBDE8F8433E
:1058D00000F0EEBDAFF30080EF39FAFE422EE63F56
:1058E000FFFFEF3FFFFFAF410000F03F000000006F
:1058F0002DE9F047C44B21F00048984584B00D468F
:10590000044616DD08F1404808F58018034658EAB9
:10591000030326D002460B460FF008FD0B46024655
:105920000FF0E2FF04460B462046194604B0BDE8DE
:10593000F087B64B98458A462EDCB8F1795F80F245
:105940006D8195A3D3E900230FF0F2FC0022B04B48
:1059500010F030F900B32B462046194604B0BDE8DC
:10596000F0878FA3D3E900230FF094FE8EA3D3E931
:10597000002306460F46204629460FF08BFE0246BE
:105980000B46304639460FF0D3FC04460B46204602
:10599000194604B0BDE8F0872046294610F0D0FB38
:1059A00002460B4600209A490FF0C0FC0022994B9A
:1059B0000FF070FE7EA3D3E9002304460D460FF0DE
:1059C00069FE7DA3D3E900230FF0B2FC22462B46EB
:1059D0000FF060FE7AA3D3E900230FF0A7FC224664
:1059E0002B460FF057FE78A3D3E900230FF0A0FC5D
:1059F00022462B460FF04EFE75A3D3E900230FF08D
:105A000095FC22462B460FF045FE73A3D3E90023F5
:105A10000FF08EFC22462B460FF03CFE70A3D3E91C
:105A20000023CDE90001204629460FF033FE6EA386
:105A3000D3E900230FF07AFC22462B460FF02AFE12
:105A40006BA3D3E900230FF073FC22462B460FF023
:105A500021FE69A3D3E900230FF068FC22462B4600
:105A60000FF018FE6A4B00220FF062FCCDE9020134
:105A70002046294611F0B8FA674B984506460F466E
:105A800067DCDDE90223DDE900010FF02DFF32467E
:105A9000CDE900013B46304639460FF049FC02464D
:105AA0000B46DDE900010FF0F5FD4FF00008CDE9F0
:105AB000000142463B46404639460FF0EBFD0246A8
:105AC0000B46204629460FF031FC424604460D465F
:105AD0003B46304639460FF02BFC02460B4620462B
:105AE00029460FF001FF02460B460FF021FC02464B
:105AF0000B462DA1D1E900010FF018FC02460B4620
:105B0000DDE900010FF012FC424604460D463B461B
:105B1000404639460FF00CFC02460B4638A1D1E94D
:105B200000010FF003FC02460B46204629460FF009
:105B3000FDFB0B46024632A1D1E900010FF0F6FB56
:105B400004460B46BAF1000F3FF7EEAE03F10043F7
:105B5000EAE6DDE90223DDE900010FF0C5FE324689
:105B60003B460FF097FD32463B460FF0E1FB024605
:105B70000B460FF0DDFB0CA3D3E900230FF0D6FB9F
:105B80000B46024606A1D1E900010FF0CFFB044607
:105B90000B46D7E7AFF300809C7500883CE4377E66
:105BA000182D4454FB21F93F075C143326A6913C81
:105BB00009F7FD0DE13D023F88B20175E0EF493F75
:105BC0003B8F68B52882A43F5544880E55C1C93F14
:105BD0007D6FEB0312D6D43F555555555555C53FEE
:105BE00082922EB1C5B8B33F59018D1B6C06E63FBA
:105BF000C88A599CE52A00404B2D8A1C273A03404D
:105C0000182D4454FB21E93FFFFFEF3FFFFFDF3F2B
:105C10000000F03F0000E03F3233EF3F02460B460A
:105C20000FF038FD38A3D3E9002306460F460FF0E6
:105C300031FD37A3D3E900230FF07AFB32463B4610
:105C40000FF028FD34A3D3E900230FF06FFB324699
:105C50003B460FF01FFD32A3D3E900230FF068FB92
:105C600032463B460FF016FD2FA3D3E900230FF079
:105C70005DFB32463B460FF00DFD2DA3D3E900231B
:105C80000FF056FB32463B460FF004FD2AA3D3E942
:105C9000002380468946304639460FF0FBFC28A396
:105CA000D3E900230FF042FB32463B460FF0F2FCF3
:105CB00025A3D3E900230FF03BFB32463B460FF010
:105CC000E9FC23A3D3E900230FF030FB32463B4627
:105CD0000FF0E0FC0022204B0FF02AFB02460B469F
:105CE000404649460FF000FE22462B460FF0D2FCFC
:105CF00022462B460FF01CFB04460B462046194655
:105D000004B0BDE8F08700BF09F7FD0DE13D023F9B
:105D100088B20175E0EF493F3B8F68B52882A43F08
:105D20005544880E55C1C93F7D6FEB0312D6D43F51
:105D3000555555555555C53F82922EB1C5B8B33FFF
:105D400059018D1B6C06E63FC88A599CE52A004024
:105D50004B2D8A1C273A03400000F03F0000000052
:105D60002DE9F84F5442144323F00049704E49EA9C
:105D7000D474B44286460F4640D84442044321F0CE
:105D8000004B4BEAD474B4428A4637D803F14044FE
:105D900004F5801414434AD09C1704F0020444EA2A
:105DA000D17450EA0B0131D052EA090137D0B14524
:105DB00052D0B34533D0ABEB09094FEA2959B9F1B9
:105DC0003C0F3BDC002B66DB704639460FF08CFD48
:105DD00010F0B6F9FEF7C8FC012C58D0022C48D0C0
:105DE000002C5ED040A3D3E900230FF09FFA40A31C
:105DF000D3E900230FF09AFABDE8F88F1046194650
:105E000072463B460FF094FABDE8F88F022C19D089
:105E1000032C10D138A1D1E90001BDE8F88FBAF107
:105E2000000F14DB36A1D1E90001BDE8F88FBDE811
:105E3000F84FFEF799BC3946BDE8F88F30A1D1E99B
:105E40000001C9E72AA1D1E90001BDE8F88F2EA120
:105E5000D1E90001BDE8F88FCB4524D0022CF1D068
:105E6000032CD7D0012C4FF0000027D00021BDE833
:105E7000F88F1DA3D3E900230FF058FA02460B4612
:105E80001BA1D1E900010FF051FABDE8F88F01F133
:105E90000041BDE8F88F19F13C0F95DA0020002190
:105EA0009AE7BDE8F88F022C16D0032C0FD0012CF6
:105EB00008D017A1D1E90001BDE8F88F4FF00041EB
:105EC000BDE8F88F14A1D1E90001BDE8F88F14A155
:105ED000D1E90001BDE8F88F13A1D1E90001BDE8C7
:105EE000F88F00BFAFF30080075C143326A6A13CF7
:105EF000182D4454FB210940182D4454FB2109C09E
:105F0000182D4454FB21F93F182D4454FB21F9BFAF
:105F1000182D4454FB21E93F182D4454FB21E9BFBF
:105F2000D221337F7CD902C0D221337F7CD9024079
:105F30000000F07F0000000043422DE9F0470343DA
:105F400021F00048424A48EAD373934206460F467E
:105F500016D890454BD03F4B98458A461EDC3AA355
:105F6000D3E9002304460FF0E3F9002200230FF0E9
:105F700021FE002845D03B4620461946BDE8F08763
:105F800002460B460FF0D2F90B4602460FF0ACFC6E
:105F900004460B4620461946BDE8F0872E4B98452F
:105FA000044645462FDD0246434641460FF0C0F900
:105FB000224606460F464346002025490FF0B6F913
:105FC00002460B46304639460FF08EFCFEF78CFE3B
:105FD000224B00220FF05EFBBAF1000F04460B4685
:105FE000D8DA01F1004320461946BDE8F0870022C7
:105FF00000230FF079FC04460B4620461946BDE805
:10600000F0873446454622462B46204629460FF067
:106010008FF922462B4606460F460FF03BFB2246E1
:10602000804689462B46002009490FF07FF9024639
:106030000B46404649460FF057FC32463B460FF0B0
:1060400077F9C3E7AFF300809C7500883CE4377EA6
:106050000000F03FFFFF2F3EFFFFDF3F0000E03F6B
:106060004F4A2DE9F84321F0004494420B4605467F
:106070001BDC4C4A944222DD4B4A944263DD4B4A7E
:1060800094427BDD4A4A944246DD0132944240D03C
:1060900041A3D3E90023104619460FF0FBFA064648
:1060A0000F4630463946BDE8F88302460B460FF0EE
:1060B000F1FA06460F4630463946BDE8F88310F03F
:1060C0003FF802F0A9FC00223A4B804689460FF0C7
:1060D0002FF9B4F1725F06460F46ECDB42464B46A1
:1060E000404649460FF0D6FA32463B4604460D4636
:1060F000304639460FF01CF902460B462046294629
:106100000FF0F2FB00222B4B0FF012F906460F4660
:10611000D1E7294A9042BBD82846194610F010F81A
:106120000022264B0FF0B6FA00F04AF8002204468F
:106130000D46224B0FF0AEFA22462B460FF0AAFA7C
:1061400006460F46B7E70FF0FBFF00F039F80022D4
:106150001A4B06460F460FF09DFA32463B46044660
:106160000D46002015490FF0BFFB02460B462046A6
:1061700029460FF0DDF806460F469CE70FF0E0FFDA
:1061800000F01EF800220D4B0FF084FA06460F4671
:1061900091E700BFAFF300809C7500883CE4377E38
:1061A000FFFFEF7F422ED63FFFFF3540412E864056
:1061B000CD3386400000F03F7DF8B98F0000E03F0E
:1061C0002DE9F04FB04F21F00042BA4283B00C46A7
:1061D0004FEAD17605460DD9AC4FBA4225D9C1F365
:1061E0001303034340F0EF800EB10020014603B0DB
:1061F000BDE8F08FA64B9A4200F2CC80A54B9A42A4
:1062000000F2DE808AA3D3E900230FF091F8002288
:10621000A14B0FF0CFFC002800F005812846214655
:1062200000229D4B0FF084F8E1E783A3D3E900231C
:106230000FF0C0FC002840F0CB802846214680A308
:10624000D3E900230FF098FC0028CED1934B2846C9
:1062500003EBC60621467CA3D3E900230FF01AFA0C
:10626000D6E900230FF064F80FF0C4FC80460FF06D
:10627000ABF977A3D3E9002306460F460FF00AFADD
:1062800002460B46284621460FF050F872A3D3E988
:106290000023CDE90001304639460FF0FBF9824674
:1062A0008B4652465B46DDE900010FF03FF805469C
:1062B0000C462A462346284621460FF0EBF968A3F0
:1062C000D3E9002306460F460FF0E4F966A3D3E9AD
:1062D00000230FF02BF832463B460FF0DBF964A3A6
:1062E000D3E900230FF024F832463B460FF0D2F9F1
:1062F00061A3D3E900230FF019F832463B460FF0B3
:10630000C9F95FA3D3E900230FF012F832463B46E8
:106310000FF0C0F902460B46284621460FF006F85A
:1063200006460F462846214632463B46B8F1000F46
:1063300056D00FF0AFF9324604460D463B460020DA
:106340004FF080410EF0F2FF02460B4620462946F0
:106350000FF0CAFA02460B46504659460EF0E6FFC9
:10636000DDE900230EF0E2FF0B4602464A49002019
:106370000EF0DCFF6FF47F7398454FDA08F57A78FA
:1063800001EB085100224FF0B8730FF083F903B00E
:10639000BDE8F08F424B9A423FF658AF414BF400B4
:1063A0002344D3E900230EF0C1FF3F4BC6F101089F
:1063B0002344CDE90001D3E900ABA8EB060870E760
:1063C0004FF0000875E702460B460EF0B1FF0EE7EE
:1063D00017A3D3E90023104619460FF05BF906E72F
:1063E0000FF058F90022804689464FF0804330462E
:1063F00039460EF09BFF02460B46404649460FF0D9
:1064000073FA2A4623460EF091FF02460B460020FF
:1064100021490EF08BFF03B0BDE8F08F01EB08516E
:1064200003B0BDE8F08F804643E700BFAFF30080C4
:106430009C7500883CE4377EEF39FAFE422E864098
:1064400051302DD5104987C0FE822B654715F73F87
:106450000000E0FE422EE63F763C7935EF39EA3D1A
:10646000D0A4BE726937663EF16BD2C541BDBB3E5A
:106470002CDE25AF6A56113F93BDBE166CC1663F38
:106480003E5555555555C53F412E8640FFFFEF7F80
:10649000422ED63FFFFF2F3E0000F03F087C010058
:1064A000B1A2F03F187C0100287C01000000000030
:1064B0002DE9F04FB1F5801F85B006460F460B461B
:1064C0005ADA024621F00044224300F0F880002905
:1064D000C0F27A810022D64B0FF0DCF8D54A0B4689
:1064E000934206460F466FF0350C4ADCC3F31305A2
:1064F00005F5152E0EF6647E0EF4801E8EF07F528A
:1065000082F440121C1542EA0507A4F2FF346444E9
:106510000022C94B3046394604EB1E540EF006FFEC
:10652000AB1CC3F31303022B82468B464FF00002D1
:1065300030DC00230FF016FB002800F0C980002C8F
:1065400000F04B8120460FF03FF8A5A3D3E90023CC
:1065500006460F460FF09EF8A3A3D3E90023044696
:106560000D46304639460FF095F802460B46204658
:1065700029460EF0DDFE0AE0AE4A93424FF0000CD1
:10658000B4DD32463B46304639460EF0D1FE05B00A
:10659000BDE8F08F4FF080430EF0CAFE02460B4676
:1065A000504659460FF0A0F9064620460F460FF018
:1065B0000BF83246CDE900013B4630463946CDE97D
:1065C00002670FF067F802460B46804689460FF0D7
:1065D00061F887A3D3E9002306460F460FF05AF867
:1065E00085A3D3E900230EF0A3FE32463B460FF00D
:1065F00051F883A3D3E900230EF09AFE32463B46BE
:106600000FF048F880A3D3E900230EF091FE424634
:106610004B460FF03FF87EA3D3E90023804689461E
:10662000304639460FF036F87BA3D3E900230EF04D
:106630007FFE32463B460FF02DF879A3D3E90023C5
:106640000EF076FE32463B460FF024F80B4602462B
:10665000494640460EF06CFEA5F5C223C5F5D72588
:10666000A3F27A4351351D43002D8046894656DDFD
:106670000022724B504659460FF00CF852465B46CA
:106680000FF008F806460F46002C68D132463B460C
:10669000404649460EF04CFEDDE902230EF0FAFFBB
:1066A00002460B46304639460EF040FE02460B4687
:1066B000504659460EF03AFE05B0BDE8F08F002274
:1066C000002300205E490FF00FF905B0BDE8F08F00
:1066D00055A3D3E90023504659460EF0DBFF02468E
:1066E0000B46002055490EF021FE524606460F4645
:1066F0005B46504659460EF0CDFF02460B463046EB
:1067000039460EF0C7FF06460F46002C40F09A802F
:1067100002460B46504659460EF008FE37E7002C5D
:1067200000F0A4802EA3D3E90023DDE900010EF0E0
:10673000B1FF42464B4604460D46504659460EF0C0
:10674000F5FDDDE902230EF0A5FF27A3D3E9002321
:1067500006460F46DDE900010EF09CFF21E020A374
:10676000D3E90023DDE900010EF094FF32463B46F9
:1067700004460D46404649460EF0DAFDDDE90223A7
:106780000EF088FF18A3D3E9002380468946DDE98F
:1067900000010EF07FFF02460B46404649460EF0D0
:1067A000C7FD02460B46304639460EF0BFFD524645
:1067B0005B460EF0BBFD02460B46204629460EF016
:1067C000B5FD05B0BDE8F08F02460B460EF0AEFDFC
:1067D000002200230FF088F8D9E600200021D6E639
:1067E0000000E0FE422EE63F763C7935EF39EA3D87
:1067F00044523EDF12F1C23FDE03CB966446C73FF0
:10680000599322942449D23F935555555555E53F08
:106810009FC678D0099AC33FAF788E1DC571CC3F13
:1068200004FA97999999D93F555555555555D53FDE
:1068300000005043FFFFEF7F0000F03F0000E03F0B
:10684000000050C320460EF0BFFE0FA3D3E9002383
:10685000804689460EF01EFF0DA3D3E900230446AF
:106860000D46404649460EF015FF9AE702460B4694
:10687000504659460EF05AFDDDE902230EF00AFF9C
:1068800014E700BFAFF300800000E0FE422EE63FB9
:10689000763C7935EF39EA3DB1F5801F2DE9F843B3
:1068A00004460D460B461ADA024621F000463243F2
:1068B00059D000295FDB00223B4B0EF0EBFE3B4A38
:1068C0000B4693420D4604466FF035010CDD22461F
:1068D0002B46204629460EF02BFDBDE8F883334AAF
:1068E00093424FF00001F2DC1815A0F2FF3008448B
:1068F0004FEAD0794844C3F313080EF065FEC9F59A
:106900007F73033348EA035506460F46204629465F
:10691000FFF7CEFD1EA3D3E900238046894630460B
:1069200039460EF0B7FE1CA3D3E9002304460D46FA
:10693000404649460EF0AEFE02460B46204629462A
:106940000EF0F6FC16A3D3E9002304460D463046AC
:1069500039460EF09FFE02460B46204629460EF0B1
:10696000E7FCBDE8F88300220023002010490EF068
:10697000BBFFBDE8F88302460B460EF0D7FC0022B1
:1069800000230EF0B1FFBDE8F88300BFAFF3008035
:10699000362BF111F3FE593D0EE526157BCBDB3F7F
:1069A00000609F501344D33F00005043FFFFEF7F30
:1069B000000050C3000000002DE9F04F23F0004715
:1069C00057EA020493B037D0674C21F00046A64244
:1069D00083460D4629DC9A46964625D0A74224DCFC
:1069E000614CA74279D0002D89468046CDE900232D
:1069F00077DB0024BEF1000F2CD15B4B9F4200F0EF
:106A00008B805A4B9F4261D0BAF1804F00F0BA831D
:106A1000574B9A451ED1002D1CDB4046494613B00A
:106A2000BDE8F04F10F0E0BA58B106F1404606F567
:106A3000801656EA0B0306D14C49002013B0BDE87E
:106A4000F08FB742CCDD4B4813B0BDE8F04F10F0EB
:106A50008FBB0024404649460FF072FBBBF1000F8C
:106A600019D126B1414B25F040429A4213D1BAF1D7
:106A7000000FC0F2BC83002DE0DA06F1404606F5B7
:106A8000801656EA040300F08F84012CD6D101F160
:106A900000431946D2E7ED0F013D54EA05034ED0FD
:106AA000354B9F426EDD03F104739F4240F3E88350
:106AB000324B9E424EDDBAF1000F4EDD28A3D3E9E2
:106AC0000023104619460EF0E5FDB7E7BAF1000FB6
:106AD000C0F23C8440464946B0E7BEF1000F82D088
:106AE000A3E7274B9F4228DCA3F154739F4280DD2C
:106AF0003B15A3F2FF33142B40F33E84C3F1340360
:106B00002EFA03F202FA03F39E457FF472AF02F00D
:106B10000102C2F102046DE706F1404303F5801360
:106B200053EA0B0388D0154B9E4240F33283BAF1EF
:106B3000000F12DBDDE9000180E702245AE742463C
:106B40004B46404649460EF0F1FB02460B460EF01E
:106B5000CBFE73E7BAF1000FB0DB002000216DE738
:106B60009C7500883CE4377E0000F07F0000F03F19
:106B70000000E03F407F01000000E041FFFFEF3FE9
:106B8000FFFF3F43B6F5801F4FF0000205DAD44BFC
:106B90000EF080FD6FF034020E463315D14FC6F370
:106BA0001306A3F2FF33134446F07F5ABE421A463F
:106BB0000D934AF4401A40F32183CB4B9E4240F39D
:106BC000FD83134601330D93C84B0022CDE9062304
:106BD00000270026CDE90867CDE90E67AAF5801ADF
:106BE0000027024653465146CDE90A23DDE9062334
:106BF0000EF09CFBDDE9062380468946DDE90A01AB
:106C00000EF096FB02460B460020B8490EF06CFED3
:106C10000A460146CDE9101213464946024640464F
:106C20000EF038FD4FEA6A0343F000538C4683466A
:106C300003F50023CDE904BCDA468B46D9190023BD
:106C4000CDE902AB0293DDE902AB002006460F4618
:106C500002460B46504659460EF01CFD02460B46B6
:106C6000404649460EF062FBDDE906238046894630
:106C7000304639460EF05AFB02460B46DDE90A0162
:106C80000EF054FB52465B460EF004FD02460B46E6
:106C9000404649460EF04AFBDDE910230EF0FAFCAF
:106CA000DDE90467CDE9060132463B463046394608
:106CB0000EF0F0FC78A3D3E9002306460F460EF051
:106CC000E9FC77A3D3E900230EF032FB32463B46C2
:106CD0000EF0E0FC74A3D3E900230EF029FB32464A
:106CE0003B460EF0D7FC72A3D3E900230EF020FB45
:106CF00032463B460EF0CEFC6FA3D3E900230EF0E4
:106D000017FB32463B460EF0C5FC6DA3D3E90023CA
:106D10000EF00EFB3246804689463B4630463946E9
:106D20000EF0B8FC02460B46404649460EF0B2FC57
:106D3000524606460F465B46DDE904010EF0F8FABE
:106D4000DDE906230EF0A6FC32463B460EF0F0FAD3
:106D50005246804689465B46504659460EF09AFC9C
:106D60000022634BCDE90A010EF0E2FA42464B469F
:106D70000EF0DEFA02980F46064632463B46504673
:106D800059460EF087FC002282468B46584B30460F
:106D900039460EF0CBFADDE90A230EF0C7FA0246B7
:106DA0000B46404649460EF0C1FADDE904230EF0D9
:106DB00071FC3246804689463B46DDE906010EF00D
:106DC00069FC02460B46404649460EF0B1FA804641
:106DD000894602460B4650465946CDE904AB0EF0B3
:106DE000A7FADDE902AB38A3D3E9002350460F46EA
:106DF0000EF050FCDDE90423CDE90201394650468E
:106E00000EF094FA02460B46404649460EF08EFAC2
:106E10002FA3D3E900230EF03DFC2FA3D3E90023D9
:106E200080468946504639460EF034FC02460B46F1
:106E3000404649460EF07CFADDE90E230EF078FA62
:106E400080460D9889460EF0BFFB424606460F4627
:106E50004B46DDE902010EF06BFADDE908230EF086
:106E600067FA32463B460EF063FA32463B465046DE
:106E70008B460EF05BFADDE908230EF057FADDE9E8
:106E800002230EF053FA02460B46404649460EF0E6
:106E90004DFA80462EE000BFEF4E454A287ECA3F9D
:106EA00065DBC9934A86CD3F01411DA96074D13F7E
:106EB0004D268F515555D53FFFAB6FDBB66DDB3F90
:106EC000033333333333E33F000000E009C7EE3FC1
:106ED000FD033ADC09C7EE3FF5015B14E02F3EBE2F
:106EE000000040438E98030079B60B000000F03F8D
:106EF000000008408946013C54EA0503DDE9000131
:106F000014BFD94CD94C0023CDE9043403460C46B8
:106F1000CDE9023400230293DDE9024522462B46E7
:106F20000EF004FA52465B460EF0B4FBDDE9002396
:106F300006460F46404649460EF0ACFB02460B465D
:106F4000304639460EF0F4F92246804689462B46F3
:106F500050465946CDE900890EF09CFB0B4602468F
:106F600006460F46404649460EF0E2F9C04B9942AC
:106F700004460D468A4640F3168101F13F4303F56E
:106F8000E003034340F0EA81A3A3D3E90023DDE952
:106F900000010EF0CDF93246804689463B46204638
:106FA00029460EF0C3F902460B46404649460EF00C
:106FB00001FE002840F0D281A8464FEA28534FF442
:106FC0008012A3F2FE3342FA03F35344C3F30A528E
:106FD000A84DA2F2FF321541C3F3130423EA0501C1
:106FE0000020C2F1140B44F48014BAF1000F0246E1
:106FF0000B4644FA0BFB30463946B8BFCBF1000BC9
:107000000EF094F902460B4606460F46DDE90001F4
:107010000EF08EF94FEA0B5A0D46002480A3D3E9F7
:107020000023204629460EF035FB3246804689462D
:107030003B46204629460EF079F902460B46DDE92B
:1070400000010EF073F978A3D3E900230EF022FBC0
:1070500077A3D3E9002306460F46204629460EF0C3
:1070600019FB02460B46304639460EF061F90646DA
:107070000F4602460B46404649460EF059F9424635
:107080004B4604460D460EF051F902460B4630467B
:1070900039460EF04BF92246804689462B4620465B
:1070A00029460EF0F7FA64A3D3E9002306460F46FB
:1070B0000EF0F0FA62A3D3E900230EF037F932465E
:1070C0003B460EF0E7FA60A3D3E900230EF030F957
:1070D00032463B460EF0DEFA5DA3D3E900230EF004
:1070E00025F932463B460EF0D5FA5BA3D3E90023DF
:1070F0000EF01EF932463B460EF0CCFA02460B4625
:10710000204629460EF012F906460F4602460B4667
:10711000204629460EF0BEFA0022CDE900014FF0CC
:107120008043304639460EF001F902460B46DDE950
:1071300000010EF0D9FB424606460F464B4620465C
:1071400029460EF0A7FA42464B460EF0F1F80246E9
:107150000B46304639460EF0E9F822462B460EF033
:10716000E5F802460B4600203F490EF0DFF88A445E
:10717000BAF5801FC0F233815146DDE904230EF0D9
:1071800089FA5BE4424640464B4649460EF082FA95
:1071900054E4BAF1000FBFF6E0ACDDE90034184664
:1071A00004F100414AE4344B21F00048984540F393
:1071B000F280324B0B4403430CD132463B460EF077
:1071C000B5F802460B46DDE900010EF0DFFC0028B1
:1071D0003FF4F3AEDDE9040121A3D3E900230EF06F
:1071E00059FA1FA3D3E900230EF054FA26E402460D
:1071F0000B4600201C490EF077FB3CE400220023E4
:10720000CDE90823CDE90E23174B00220027CDE955
:107210000623E6E4AFF30080FE822B654715973C1A
:1072200000000000432EE63FEF39FAFE422EE63F13
:10723000396CA80C615C20BED0A4BE726937663E72
:10724000F16BD2C541BDBB3E2CDE25AF6A56113F66
:1072500093BDBE166CC1663F3E5555555555C53F4D
:1072600059F3F8C21F6EA5010000F03F0000F0BF07
:10727000FFFF8F40FFFF0F00FFCB904000346F3FB8
:107280006B4B9E427FF766AC6A4B9E423FF713AC56
:107290000022684B0EF04AF857A3D3E900230646B4
:1072A0000F460EF0F7F956A3D3E90023804689462E
:1072B000304639460EF0EEF9002282468B465E4B90
:1072C000304639460EF0E6F902460B464EA1D1E9AA
:1072D00000010EF02BF832463B460EF0DBF9024679
:1072E0000B46002055490EF021F83246CDE9020147
:1072F0003B46304639460EF0CDF902460B46DDE9F5
:1073000002010EF0C7F942A3D3E900230EF0C2F93F
:1073100002460B46504659460EF008F802460B4608
:1073200006460F46404649460EF002F842464B4696
:10733000002082468B460DF0F9FF02460B46304690
:1073400039460DF0F3FF80468946D4E542464B4668
:10735000002038490EF0C8FAFFF770BBDDE90401E0
:107360002DA3D3E900230EF095F92BA3D3E9002335
:107370000EF090F9FFF762BBBEF1000F7FF469AB2E
:10738000C3F1140347FA03F202FA03F39F422AD02F
:107390007446FFF736BB294B98453FF70EAEDDE943
:1073A00002239246934638E602460B460DF0BEFF96
:1073B00002460B460EF098FAFFF740BB18A3D3E93C
:1073C0000023CDE9082318A3D3E90023CDE90E2338
:1073D0001B4B00224FF48027CDE9062301E45A46D7
:1073E00001F05AFDC9E602F00102C2F10204FFF702
:1073F00008BB00BFAFF30080000000604715F73FF7
:1074000044DF5DF80BAE543E555555555555D53FA7
:10741000FE822B654715F73F9C7500883CE4377E5C
:107420000000004003B8E23F06D0CF43EBFD4C3EE6
:10743000FEFFEF3F0000F03F0000D03F0000E03FC4
:107440000000F83F000000002DE9F04F9A4E21F0B7
:107450000047B74291B040F38E809246974A9742D8
:107460000C4626DC00298AA3D3E9002340F3B4812B
:107470000DF05CFF924B9F4204460D4600F0908059
:1074800085A3D3E900230DF051FF02460B46CAE95C
:107490000023204629460DF049FF7FA3D3E90023AE
:1074A0000DF044FF0125CAE90201284611B0BDE8EC
:1074B000F08F844A974240F39080834A974265DC7C
:1074C0003D15A5F21645A7EB055319461F4606467E
:1074D0000EF090FB0EF078F88046894602460B4687
:1074E00030463946CDE90A890DF020FF0022774B5E
:1074F0000EF0D0F8894680460EF07CFB0EF064F862
:1075000002460B4606460F4640464946CDE90C6703
:107510000DF00CFF00226D4B0EF0BCF80022002392
:10752000CDE90E010EF01EFB002800F07381002350
:107530003046394600220EF015FB002814BF012307
:107540000223634A019202212A4600910AA8514669
:1075500000F086FB002C054614DADAF80420DAF88D
:107560000C3002F1004203F100434542CAF8042006
:10757000CAF80C3006E0C2E9000100250024C2E987
:1075800002450025284611B0BDE8F08F02460B46A3
:107590000DF0CCFE0025CAE90201CAE90001F1E7BD
:1075A0003FA3D3E900230DF0C1FE3FA3D3E900239D
:1075B0000D4604460DF0BAFE02460B46CAE900230A
:1075C000294620460DF0B2FE37A3D3E900230DF083
:1075D000ADFE0125CAE90201D4E70EF0B1FD34A3E6
:1075E000D3E90023804689460EF054F80022394B37
:1075F0000DF09EFE0EF0FEFA05460DF0E5FF24A309
:10760000D3E90023CDE904010EF044F802460B460D
:10761000404649460DF08AFE1FA3D3E90023804669
:107620008946DDE904010EF035F81F2DCDE9020190
:1076300054DC294B6A1E53F822309F424ED002463A
:107640000B46404649460DF071FE02460B46CAE91C
:10765000002383460E465A463346404649460DF0BF
:1076600065FEDDE902230DF061FE002C02460B46AB
:10767000CAE9022386DA5B4606F1004601F10041C1
:107680008AE84800CAF80C10CAF808006D4279E789
:1076900000004054FB21F93F3163621A61B4D03DD0
:1076A0000000601A61B4D03D7370032E8A19A33BA9
:1076B00083C8C96D305FE43FFB21E93F7BD90240BD
:1076C000FB21F93FFB213941FFFFEF7F00007041B3
:1076D000048801000000E03F84870100DDE9022307
:1076E000404649460DF022FE3A15C1F30A53D31A1B
:1076F000102B83460E460992CAE90001ABDD58A360
:10770000D3E90023DDE904010DF0C4FF06460F466E
:1077100002460B46404649460DF008FECDE90601FB
:1077200002460B46404649460DF000FE32463B46B7
:107730000DF0FCFD4CA3D3E9002306460F46DDE91E
:1077400004010DF0A7FF32463B460DF0EFFDDDE9E9
:107750000689CDE9020102460B46404649460DF036
:10776000E5FD0B46C1F30A570E460999CF1B0246A9
:10777000312F8346CAE900236CDD3DA3D3E9002302
:10778000DDE904010DF086FF06460F4602460B4672
:1077900040464946CDE906890DF0C8FD02460B4634
:1077A00080468946DDE906010DF0C0FD32463B46C4
:1077B0000DF0BCFD30A3D3E9002306460F46DDE9FA
:1077C00004010DF067FF32463B460DF0AFFD024667
:1077D0000B46CDE9022334E70DF0AAFD2A4B9F4268
:1077E00004460D4618D026A3D3E900230DF0A0FDD2
:1077F00002460B46CAE90023294620460DF096FDB5
:107800001FA3D3E900230DF093FD4FF0FF35CAE924
:107810000201B7E6032394E611A3D3E900230DF098
:1078200087FD11A3D3E900230D4604460DF080FD2A
:1078300002460B46CAE90023294620460DF076FD94
:1078400009A3D3E900230DF073FD4FF0FF35CAE91A
:10785000020197E6DDE90689FDE600BFAFF300808F
:107860000000601A61B4D03D7370032E8A19A33BE7
:107870000000002E8A19A33BC14920259A837B3939
:107880003163621A61B4D03DFB21F93F0000000072
:10789000574A2DE9F84F21F0004890450E4607461B
:1078A0002BDC544B0029B4BF534D544D98454FF039
:1078B000000410DC524B98456EDC4BA3D3E9002347
:1078C0000DF036FD00224F4B0EF074F9D8B138465A
:1078D0003146BDE8F88F4C4B984579DD4B4B9845C8
:1078E00043DD013398453DD0384631463EA3D3E9C8
:1078F00000230DF0CFFEBDE8F88F02460B460DF0D9
:1079000017FDBDE8F88F384631460EF019FC01F03E
:1079100083F806460F4632463B46304639460DF060
:1079200007FD324682468B463B46304639460DF0CF
:10793000B1FE002280468946324B304639460DF072
:10794000F7FC02460B46404649460DF0CDFF024685
:107950000B46504659460DF0E9FC22462B460DF0E9
:1079600099FECEE72A4B9842BED8384631460EF0F3
:10797000E7FB0022214B0DF08DFEFEF721FC0646B1
:107980000F4602460B46204629460DF083FE32463E
:107990003B460DF07FFEB4E70EF0D2FB01F03CF861
:1079A0001C4B984506460F46B5DD0022154B0DF0E1
:1079B000BFFC02460B46304639460DF095FF324675
:1079C0003B460DF0B5FC22462B460DF063FE98E7D2
:1079D0000EF0B6FBFEF7F4FB02460B4620462946A6
:1079E0000DF058FE8DE700BF3374AC3C1F7BAC7FBD
:1079F000FFFFEF7FFFFF35400000E0BF0000E03FEA
:107A0000FFFF2F3E0000F03F412E8640CD338640E1
:107A10007DF8B98FFFFFEF3F2DE9F04F21F00046D1
:107A2000B6F1795F85B00C4692469B4605466BDA07
:107A30000EF0E0F8002800F0E8802A4623462846A9
:107A400021460DF027FE74A3D3E900238046894622
:107A50000DF020FE72A3D3E900230DF069FC42462D
:107A60004B460DF017FE70A3D3E900230DF05EFC2A
:107A700042464B460DF00EFE6DA3D3E900230DF0F8
:107A800057FC42464B460DF005FE6BA3D3E900239D
:107A90000DF04CFC42464B460DF0FCFD68A3D3E9CB
:107AA00000230DF045FC42464B460DF0F3FDCDE9B9
:107AB00000010022644B404649460DF0EBFDDDE934
:107AC000002306460F46404649460DF0E3FD524668
:107AD000804689465B46284621460DF0DBFD02467E
:107AE0000B46404649460DF021FC02460B46304607
:107AF00039460DF01BFC02460B46002053490DF0A1
:107B000015FC05B0BDE8F08F02460B460DF0C2FD36
:107B100041A3D3E90023804689460DF0BBFD40A375
:107B2000D3E900230DF004FC42464B460DF0B2FDB4
:107B30003DA3D3E900230DF0F9FB42464B460DF07F
:107B4000A9FD3BA3D3E900230DF0F2FB42464B46CF
:107B50000DF0A0FD38A3D3E900230DF0E7FB42466A
:107B60004B460DF097FD36A3D3E900230DF0E0FB63
:107B70004B4642460DF08EFD354B9E42CDE900014D
:107B800097DD344B9E424FF0000238DCA6F500131F
:107B900000202E4916461F460DF0C8FBCDE9020114
:107BA0000022294B404649460DF074FD32463B46C3
:107BB0000DF0BCFBDDE9002306460F464046494672
:107BC0000DF068FD5246804689465B4628462146B0
:107BD0000DF060FD02460B46404649460DF0A6FBFF
:107BE00002460B46304639460DF0A0FB02460B46D6
:107BF000DDE902010DF09AFB05B0BDE8F08F164BF0
:107C0000164FCDE902230026CAE71049002005B02F
:107C1000BDE8F08FAFF30080D43888BEE9FAA8BD84
:107C2000C4B1B4BD9EEE213EAD529C804F7E923ECB
:107C30009015CB19A001FA3E7751C1166CC1563F81
:107C40004C5555555555A53F0000E03F0000F03F0D
:107C50003233D33F0000E93F0000E73F0000D23F4E
:107C60002DE9F04FADF5197D9C4CA29E9C4D54F82A
:107C7000264005942646D41E85FB0475E417C4EB04
:107C8000A50424EAE4741D460893631CA3EB830354
:107C9000013D02EBC30304932B4609940295651B37
:107CA000F418039006911AD42C4401340DF178088D
:107CB00000260027DDF88C9208E059F825000DF029
:107CC00083FC0135A542E8E9020108D0002DF4DA71
:107CD000013530463946A542E8E90201F6D1059B57
:107CE000002B2EDB089B4FEAC309039BA9F1080870
:107CF000984420AB9944059B70AA02EBC30B0DF589
:107D0000DC7A029B002BC0F20F83039B4D46A3F14C
:107D100008040026002775E90223F4E902010DF0AA
:107D2000B9FC02460B46304639460DF001FB44458E
:107D300006460F46EFD1EAE90267DA4509F108097C
:107D4000DFD10598089A009000F18043013B9B0029
:107D50000CAC191F234402F100520B93039B013A10
:107D600021440A9103EBC20B009A98A901EBC203CC
:107D7000002A53E9284513462BDD01EBC308A8F17F
:107D8000A8080DF12C090DF5DC7A0022554B204690
:107D900029460DF07FFC0DF02DFF0DF015FC0022A3
:107DA000514B06460F460DF075FC02460B46204629
:107DB00029460DF0BBFA0DF01DFF78E8022349F8C3
:107DC000040F394630460DF0B3FAD04504460D464F
:107DD000DBD1DDF81090204629464A4601F05CF8D8
:107DE00000224FF07F5304460D460DF053FCFCF784
:107DF000EFFE00223D4B0DF04DFC02460B462046A7
:107E000029460DF093FA0D4604460DF0F3FE804628
:107E10000DF0DAFB0B460246294620460DF086FAA5
:107E20004B46002B06460F4640F3F780009A0CA9FC
:107E3000013AC9F1180351F8225045FA03F101FA49
:107E400003F30CA8EB1A40F82230C9F11705884457
:107E500043FA05F5002D63DD009B002B08F10108B6
:107E600040F381820C9C002C00F018830120002339
:107E70000CAAC4F1807442F82340009A824219DDB2
:107E80000CAA0CAC52F820106FF07F42511A44F843
:107E900020100099023399420CDD1046009A0CA97B
:107EA00001EB830301EB82011A68821A43F8042B69
:107EB0008B42F9D1049B002B1ADD049B012B4FF060
:107EC000010440F05882009B5A1E0CAB0CA953F8D9
:107ED0002230C3F3160341F8223058E20C89010026
:107EE000ABAAAA2A0000703E0000704100002040AA
:107EF000022D15D132463B46002097490DF016FA67
:107F000006460F46049A9449002000F0C5FF024639
:107F10000B46304639460DF009FA022506460F4653
:107F200000220023304639460DF01CFE002800F0E8
:107F30005282009A059B501E83420FDC02F180435F
:107F4000013B0CAA0B9C02EB8303002253F804199B
:107F5000A34242EA0102F9D1002A6FD1059B0CAA83
:107F6000013B52F82330002B40F033820A9A012360
:107F700052F8041901330029FAD0009AD31802F1FB
:107F8000010A9A4507933DDC009B0899099A0B4426
:107F900007990AEB0208994620AB08F1804803EBE9
:107FA000C9098B18A39A08F1FF3802EB880870AA58
:107FB00002EBCA0AA39A02EB8303009358F8040F5A
:107FC0000DF002FB029B002BE9E802011DDB039B85
:107FD0004D46A3F108040026002775E90223F4E9C1
:107FE00002010DF057FB02460B46304639460DF0B4
:107FF0009FF95C4506460F46EFD1009B9845EAE89D
:108000000267DBD1079B0093AEE6009B00260027AA
:108010009845EAE80267D1D1F4E706D1009B0CAAA3
:10802000013B52F82350ED1514E700224B4B0DF0A5
:10803000B7FD002840F08281054671E70CA9029542
:1080400051F820300499CDF81C8018390246009070
:1080500004916BB900F18043013B0CA800EB830352
:1080600053F80409013A18390028F9D00092049114
:10807000049A3949002000F00FFF009B002B0446B2
:108080000D46C0F20382DA0070A901EB020B0492E4
:108090000CAA02EB8306DFF8C8900BF10807043640
:1080A0004FF0000856F8040D0DF08EFA22462B46CC
:1080B0000DF0F0FA4B4667E9020142462046294698
:1080C0000DF0E8FA0CAB9E4204460D46EAD10DF5E0
:1080D000907ACDF80CA0DDF814A04FF00009BAF1A9
:1080E000000FC0F23D81DFF87C805D4618A1D1E928
:1080F000000100260027002403E04C4510DCF8E8CE
:108100000201F5E802230DF0C5FA02460B4630469F
:1081100039460DF00DF90134A24506460F46ECDA5A
:10812000039B03EBC903ABF1080BC3E900676EAB1C
:108130005B4509F10109D2D1A29BDDF80CA0032B0C
:1081400000F28B80DFE813F0D10090009000100067
:1081500000000040FB21F93F0000F03F0000E03F3D
:108160000000703E507C0100009B002B40F3A48176
:10817000049B0AEB0308D8E90067D34658E9029A42
:1081800032463B46484651460DF0D2F804460D466D
:1081900002460B46484651460DF0C8F832463B466B
:1081A0000DF0C6F8C8E9000168E90245C345264656
:1081B0002F46E3D1009B012BDA4640F37D81049BDF
:1081C0005B44D3E90067984699460DF5947B59E9DD
:1081D00002343246184621463B46CDE900010DF0F7
:1081E000A7F804460D4602460B46DDE900010DF0F6
:1081F0009DF832463B460DF09BF8C9E9000169E95C
:108200000245CB4526462F46E1D1002308F1080858
:108210001D464CAC1846294678E902230DF088F833
:10822000444503460D46F5D1029A002A00F020810C
:10823000DAF80440DAF80C20069FDAF80010DAF8D1
:1082400008003B6105F1004504F1004402F10042E1
:108250007D617C60FA603960B860079B03F00700BD
:108260000DF5197DBDE8F08F049C002608345444B8
:1082700033463046194674E902230DF059F8544547
:1082800006460B46F5D1029A30461946002A00F000
:10829000DA80069803F10044324644600660DAE969
:1082A00000010DF043F80B460099002902460EDD4F
:1082B000012410461946FAE902230DF039F80B465D
:1082C00000990134A1420246F3DA029909B103F19F
:1082D00000431946069B1046C3E90201079B03F0C1
:1082E00007000DF5197DBDE8F08F049C00220834CD
:1082F000544413461046194674E902230DF018F849
:10830000A24502460B46F5D1029909B103F100439B
:108310001946069B1046C3E90001079B03F00700BE
:108320000DF5197DBDE8F08F00260027EAE9026708
:10833000DA4509F108097FF4E4AC02E5009B002B63
:1083400008F10108C8BF02253FF78CAD32463B4615
:10835000002063490CF0EAFF022506460F46DFE5E0
:1083600000260027DCE6049B002B26DD0024049B6E
:10837000012B3FF4A8AD022B09D1009B5A1E0CAB78
:108380000CA953F82230C3F3150341F82230022D13
:108390007FF4C6AD32463B46002051490CF0C6FF83
:1083A00006460F46002C3FF4BBADABE50099013308
:1083B000994278D1049B002BD9DC022D7FF4B0AD1B
:1083C00032463B46002046490CF0B0FF06460F46B9
:1083D000A6E50123D1E53946049F02957A4230464D
:1083E000CDF81C8000F058FD00223E4B04460D469F
:1083F0000DF0D6FB002862D000223B4B20462946D8
:108400000DF048F90DF0F6FB06460DF0DDF8002200
:10841000344B0DF03FF902460B46204629460CF03E
:1084200085FF0DF0E7FB00990B4601331A460093D8
:108430003B46183304930B460CA941F8230013461E
:1084400041F8236014E6069B3246C3E900010B465F
:10845000DAE900010CF06AFF0B4600990029024698
:108460003FF726AF1946069B1046C3E9020135E7E0
:1084700018462946DAE90023DAE90245069FC7E9EA
:108480000401C7E90023C7E90245E6E6A29B032BE6
:108490003FF6E3AEDFE803F0211C1C0E009B012B2E
:1084A00088DD0CAA012352F8044F002C3FF47EAF64
:1084B000581CDDE40DF5907A00231D46B4E62946EC
:1084C00020460DF097FB009A0CA941F82200CFE559
:1084D000002633460DF5907AD5E60022134613E7C1
:1084E0000000F03F000070410000703E00000000FE
:1084F0002DE9F04F21F00046B6F1795F85B00C46CA
:1085000090469946054604DA0DF074FB002800F009
:1085100085802A462346284621460DF0BBF80646AC
:108520000F4602460B46284621460DF0B3F83EA3FF
:10853000D3E9002382468B46304639460DF0AAF82F
:108540003BA3D3E900230CF0F1FE32463B460DF08D
:10855000A1F839A3D3E900230CF0EAFE32463B46EA
:108560000DF098F836A3D3E900230CF0DFFE324675
:108570003B460DF08FF834A3D3E900230CF0D8FE6E
:108580000E9BCDE900019BB30022334B4046494688
:108590000DF080F8DDE90023CDE90201504659468F
:1085A0000DF078F802460B46DDE902010CF0BEFE44
:1085B00032463B460DF06EF842464B460CF0B6FE96
:1085C00023A3D3E9002306460F46504659460DF033
:1085D00061F802460B46304639460CF0A9FE0246C9
:1085E0000B46284621460CF0A1FE05B0BDE8F08FF1
:1085F00002460B46304639460DF04CF814A3D3E939
:1086000000230CF093FE52465B460DF043F82A46D9
:1086100023460CF08DFE05B0BDE8F08F28462146BC
:1086200005B0BDE8F08F00BF7CD5CF5A3AD9E53D03
:10863000EB9C2B8AE6E55A3E7DFEB157E31DC73E13
:10864000D561C119A0012A3FA6F810111111813F6F
:10865000495555555555C53F0000E03F0000000005
:108660002DE9F04FDA4C21F00046A64287B08A4649
:1086700089461746984683461ADC0DF0BBFAA8BB1C
:108680005B461E43109B0133334300F0A981109BCE
:10869000012B00F0B9815A4653460020CD490DF018
:1086A00023F904460D462046294607B0BDE8F08F61
:1086B000C94B9E421ADD0029C0F29F815A4653469B
:1086C000A5A1D1E900010CF031FE3A46434604462B
:1086D0000D46A3A1D1E900010CF028FE22462B464D
:1086E0000CF026FE002783468A46B8465A46534673
:1086F000584651460CF0CEFF03460C46CDE90034F7
:1087000002460B460CF0C6FFDDE9002304460D4689
:10871000584651460CF0BEFF93A3D3E90023CDE9A0
:108720000201204629460CF0B5FF91A3D3E90023AE
:108730000CF0FEFD22462B460CF0ACFF8EA3D3E9D5
:1087400000230CF0F5FD22462B460CF0A3FF8CA372
:10875000D3E900230CF0ECFD22462B460CF09AFFE7
:1087600089A3D3E900230CF0E3FD22462B460CF04D
:1087700091FF87A3D3E900230CF0DAFDDDE90023A4
:108780000CF088FF84A3D3E90023CDE9040120463F
:1087900029460CF07FFF82A3D3E900230CF0C8FD2B
:1087A00022462B460CF076FF7FA3D3E900230CF082
:1087B000BFFD22462B460CF06DFF7DA3D3E90023BD
:1087C0000CF0B6FD22462B460CF064FF7AA3D3E9E9
:1087D00000230CF0ADFD22462B460CF05BFF78A386
:1087E000D3E900230CF0A4FD02460B46DDE90401A9
:1087F0000CF09EFDDDE902230CF04CFF3A464346A7
:108800000CF096FDDDE900230CF044FF02460B4618
:10881000384641460CF08CFD6BA3D3E90023044697
:108820000D46DDE902010CF035FF22462B460CF027
:108830007FFD0B46024651465846CDE900230CF019
:1088400077FD654B9E4204460D463EDC109B012B96
:1088500036D002460B4600205E490DF045F8002454
:108860000F4606465A465346204629460CF05EFD02
:10887000A04602460B46DDE900010CF057FD4246DA
:108880003B460CF007FFA94604460D4642463B46D0
:10889000404649460CF0FEFE0022504B0CF048FDCD
:1088A00002460B46204629460CF042FD32463B4626
:1088B0000CF0F0FE42463B460CF03AFD04460D46F5
:1088C0002046294607B0BDE8F08F10980CF07CFEDA
:1088D000224606460F462B46204629460CF0DAFE75
:1088E0003246CDE902013B46204629460CF020FDE8
:1088F00002460B46DDE902010CF0F6FFDDE900233C
:108900000CF014FD02460B46584651460CF00EFD85
:1089100002460B460CF00CFD02460B46304639462B
:108920000CF004FD04464FEAA97000F00200C0F10B
:1089300001000D460CF048FE02460B462046294633
:108940000CF0A8FE04460D462046294607B0BDE8B7
:10895000F08F00BFAFF30080182D4454FB21E93F96
:10896000075C143326A6813CD47ABF74702AFB3E80
:10897000E9A7F0320FB8123F68108D1AF726303F82
:108980001583E0FEC8DB573F93846EE9E326823F00
:10899000FE41B31BBAA1AB3F735360DBCB75F3BE93
:1089A000A69237A0887E143F0165F2F2D844433F77
:1089B000280356C9226D6D3F37D60684F464963F6E
:1089C0007AFE10111111C13F635555555555D53FCC
:1089D000FFFF2F3E0000F0BF2794E53F0000F03F6F
:1089E000584651460DF0ACFB02460B4600200849A4
:1089F0000CF07AFF04460D4662E701F1004308F1EE
:108A0000004883469A4659E65C46554658E700BFFB
:108A10000000F03F000000002DE9F04FD24A21F0A5
:108A20000043934285B00C460E4605462DD9CF4AE9
:108A300093421AD8002E80F21681B5A3D3E9002301
:108A4000284621460CF074FC002200230DF094F817
:108A5000C0B9B1A3D3E90023284621460CF01AFE81
:108A600002460B460020C24908E1C24A934240F246
:108A7000D0800346C1F31302134340F0F68100296E
:108A800080F2C4800020BC49C0E0BC4A934200F29E
:108A90002981BB4A934240F2DE80002301930022E9
:108AA000B84B284621460CF0F5FD06460F46024617
:108AB0000B46284621460CF0EDFD99A3D3E900238F
:108AC00082468B460CF0E6FD97A3D3E900230CF019
:108AD0002FFC52465B460CF0DDFD95A3D3E9002345
:108AE0000CF024FC52465B460CF0D4FD92A3D3E973
:108AF00000230CF01DFC52465B460CF0CBFD90A30E
:108B0000D3E900230CF012FC52465B460CF0C2FD88
:108B100000229D4B0CF00CFC8046894602460B4619
:108B2000304639460CF0B6FD02460B460020974908
:108B30000CF0FCFB064602460B460F4640464946F3
:108B40000CF0F4FB3246804689463B4628462146D7
:108B50000CF0A0FD02460B4600208D490CF0E6FB10
:108B600002460B46404649460CF0BEFE52465B4666
:108B70000CF090FD019E02460B46002E38D0DDE938
:108B8000026732463B460CF0D1FB2A4623460CF0E6
:108B900081FD32463B460CF0C9FB5B4652460CF069
:108BA000C5FB019B013306460F4600F00F81019B78
:108BB000012B00F0F180019B0133392B39D8019B47
:108BC000132B40F31281019FC7F57F7603360022F5
:108BD00033050CF0ADFB02460B46284621460CF04F
:108BE000A5FB0022684B0CF0A3FB01EB07510DE045
:108BF000284621460CF04EFD52465B460CF096FB93
:108C000002460B46284621460CF090FB05B0BDE815
:108C1000F08F4DA3D3E900230CF0CCFF00283FF4E4
:108C200009AF4BA3D3E90023104619460CF032FDDF
:108C3000ECE72A4623460CF079FB02460B4600205F
:108C400051490CF073FB019A4F4B01EB025100228A
:108C50000CF06CFBDAE73EA3D3E900230CF068FBD1
:108C600002460B46CAE72CA3D3E900232846214637
:108C70000CF010FD0B464349024600200CF058FB57
:108C80000CF0B8FF01900CF09FFC33A3D3E9002354
:108C900006460F460CF0FEFC02460B4628462146CF
:108CA0000CF044FB2EA3D3E90023804689463046CE
:108CB00039460CF0EFFC06460F4632463B4640462E
:108CC00049460CF033FB02460B4605460C4640462F
:108CD00049460CF02BFB32463B460CF027FBCDE916
:108CE0000201DCE62B4A934200F2978000291AA386
:108CF000D3E90023C0F2AE800CF018FB01238046BC
:108D00008946019316A7D7E90067D6E7AFF300803D
:108D100059F3F8C21F6EA501FE822B654715F73F78
:108D20002DC3096EB7FD8ABE3952E686CACFD03E42
:108D3000B7DBAA9E19CE143F8555FE19A0015A3FF4
:108D4000F41011111111A13FEF39FAFE422E8640A5
:108D50009C7500883CE4377E0000E0FE422EE63F32
:108D6000763C7935EF39EA3D79684340412E8640BB
:108D70000000E0BFFFFFEF7F0000F0BF422ED63FB4
:108D8000FFFF8F3C0000E03F0000F03F0000084084
:108D900000001840B1A2F03F2846214600223A4B7D
:108DA0000CF0EAFE002846D0284621460022374B28
:108DB0000CF0BEFA02460B46304639460CF0B6FAC5
:108DC00000224FF040430CF065FC1FE732463B4663
:108DD000284621460CF0AAFA00222C4B0CF05AFC33
:108DE00000222A4B0CF0A2FA10E7019E4FF4001E5D
:108DF0004EFA06FE2A462346CEF17F570CF096FA2D
:108E0000002607F5401702460B46304639460CF05F
:108E10008DFA019E01EB0651F8E617A3D3E9002372
:108E20000CF038FC002C02460B464FF00000FFF619
:108E30001AAE164922E732463B46284621460CF038
:108E400075FA02460B460CF073FA0022104B0CF038
:108E50006FFADBE60CF06CFA4FF0FF338046894680
:108E6000019307A7D7E9006727E702460B460CF0F6
:108E70005FFACBE6AFF30080FE822B654715F73F24
:108E8000763C7935EF39EABD0000D0BF0000E03F05
:108E90000000F03F00000000F8B5C1F30A56044698
:108EA0000D460B4617460EBB21F000430343864692
:108EB00025D00022344B0CF0EDFB344A9742044697
:108EC0000D460B462ADBC1F30A56363E3E4440F2BD
:108ED000FE72964228DC002E12DD23F0FF4323F4BD
:108EE000E00343EA065520462946F8BD40F2FF72EA
:108EF0009642EBD102460B460CF01AFAF8BDF8BDCB
:108F000016F1350F1DDA4CF250339F4222462B46A4
:108F100025DC19A1D1E900010EF0BAF916A3D3E9B5
:108F200000230CF0B7FBF8BD22462B4614A1D1E973
:108F300000010EF0ADF912A3D3E900230CF0AAFB57
:108F4000F8BD23F0FF4323F4E003363643EA065529
:108F50002046294600220E4B0CF09CFBF8BD08A1D0
:108F6000D1E900010EF094F905A3D3E900230CF038
:108F700091FBF8BDAFF3008059F3F8C21F6EA50155
:108F80009C7500883CE4377E00005043B03CFFFFF6
:108F90000000903C10B5054C237833B9044B13B155
:108FA0000448AFF300800123237010BD4802002065
:108FB00000000000588A01000C4B43B10C480D49D9
:108FC00010B5AFF300800C48036823B910BD0A4800
:108FD000036833B97047094B002BF7D0BDE8104048
:108FE0001847064B002BF5D0184700BF00000000C3
:108FF000588A01004C020020588A0100000000003D
:1090000008B500F0C9FEFCF7A7F8BDE8084000F07D
:1090100075BC00BF08B500F0BFFEFCF70DF9BDE858
:10902000084000F06BBC00BF08B500F0B5FE0DF0C5
:10903000FDF8BDE8084000F061BC00BF08B500F0D5
:10904000ABFE0DF0F5FDBDE8084000F057BC00BFD9
:1090500008B500F0A1FEFCF78FF8BDE8084000F06D
:109060004DBC00BF08B500F097FE0DF097FABDE8C3
:10907000084000F043BC00BF08B500F08DFEFBF7D0
:10908000CBFABDE8084000F039BC00BF08B500F0DD
:1090900083FE0DF0D7F9BDE8084000F02FBC00BFFB
:1090A00070B5049E96420C4628DB15466BB1002A2B
:1090B00000EB020107DD2046A21811F8013D00F87F
:1090C000013B9042F9D1002070BD042A0FD0022A42
:1090D00002D110F0010306D001462A46204604F0D2
:1090E00063F8002070BD02880A80184670BD10F039
:1090F0000303F1D102680A60184670BD08460021DA
:1091000005F0AAF84FF0FF3070BD00BF083070477F
:1091100040B1002905DB4368994202DA0844007A2D
:1091200070470020704700BF30B1002904DB43685E
:109130009942BCBF40180272704700BF002B23DB6E
:10914000002921DB70B54668B1421ADC5568761AF1
:109150001446EA1AB242A8BF3246002A11DB844202
:109160000D4607D0083408300844E11804F01CF814
:10917000002070BD0834E11860190EF059F9002084
:1091800070BD4FF0FF3070BD4FF0FF30704700BF33
:109190004068704710B4141E10DB426894420DDC26
:1091A00033EA230328BF1346121B08309A42204497
:1091B000A8BF1A465DF8044B05F04EB85DF8044BA5
:1091C000704700BF43688B4210B400F10804184692
:1091D000A8BF084632EA220128BF19461B1A994245
:1091E0002044A8BF19465DF8044B00F07FBA00BFC9
:1091F000002BBCBF43689B1A002A70B50E4620DBCB
:1092000044689918A1421CDC8A421ADCCBB136F0C2
:10921000004116D059428E4214DDB34212DD0830AF
:10922000002E00EB020515DB9C1B2246A9192846DF
:109230000EF0FEF8324628190021BDE8704005F016
:109240000BB870BD002211464FF0FF33BDE87040EF
:10925000FFF7A0BF74429A19294628190EF0E8F8C2
:10926000224628460021BDE8704004F0F5BF00BF4B
:1092700070B5044600206168490000F013FA666882
:10928000002E11DD094D04F1080100EB46060346EE
:1092900011F8012B141102F00F022C5DAA5C9C71D5
:1092A000DA7102339E42F3D170BD00BF987C010099
:1092B000002BBCBF43689B1A002A2FDB70B44568A3
:1092C0009C18AC4229DCA24227DC33B331F00044C5
:1092D00023D00029B8BF01EB032191FBF3F603FB78
:1092E0001616002E00F10800B8BFF6180244164406
:1092F000B242134411D0304604E0B24208460ED0C8
:1093000090420AD00146147811F8015B02F8015B23
:109310008B420470F1D13046F2E770BC70470E46C4
:10932000EEE700BF00B583B04FF0FF33009300239A
:10933000FFF704FF03B05DF804FB00BF0146002007
:1093400000F0D4B930B5013A83B004460D460F2A77
:1093500016D8DFE802F01717838D94172E08081F20
:10936000424D5C367462184600F0AAFD012DADF83E
:10937000000005DD9DF800209DF80130237062702B
:1093800003B030BD184600F09BFD002DF8DD2070C5
:1093900003B030BD184600F093FD032D0090EFDDC3
:1093A0006A46231D12F8011B03F8011D9C42F9D1E6
:1093B000E6E7184600F084FD002DC0B2E0DD207025
:1093C000E6E7184600F0E8FC072DCDE90001D7DDFF
:1093D0006B4603CB20606160D2E7184600F004FDC5
:1093E000032DCDDDA3070CBF2060206003B030BD8E
:1093F000184600F0F9FC032D0090C1DD6A46231DDC
:1094000012F8011B03F8011D9C42F9D1B8E7184678
:1094100000F0E8FD032DE5DCB2E7184600F0BCFCE7
:10942000072DCDE90001ABDD0DF1FF3204F108039A
:1094300012F8011F03F8011DA342F9D1A0E7184655
:1094400000F0D0FD032D00909ADD6A46231D12F82E
:10945000011B03F8011DA342F9D191E7184600F062
:109460002FFD012D8CDDE20754BF2080208087E78F
:10947000184600F025FD012D82DD80B2F3E7184685
:1094800000F01EFD032DADDC7AE700BF30B4141EE2
:1094900007DB456808300A462044291B30BCFFF72B
:1094A00051BF30BC704700BF00B5013A85B00F2AEC
:1094B00000F28880DFE802F01623303D4A56595CFE
:1094C0005F626571748083080091012308220DEBAF
:1094D0000201FFF7E5FDDDE9020100F00FFA05B03A
:1094E0005DF804FB00910023012202A9FFF7D8FDDB
:1094F0009DF9080000F0CAFA05B05DF804FB009180
:109500000023012202A9FFF7CBFD9DF8080000F01F
:10951000BDFA05B05DF804FB00910023022202A908
:10952000FFF7BEFDBDF9080000F0B0FA05B05DF828
:1095300004FB00910023022202A9FFF7B1FDBDF850
:10954000080000F0A3FA05B05DF804FB00910023C9
:10955000042202A9FFF7A4FD029800F097FA05B0D3
:109560005DF804FB01230091BEE701230091C8E7E9
:1095700000910123D2E700910123DCE70091012350
:10958000E6E700910023042202A9FFF789FD029873
:1095900000F086FA05B05DF804FB00910123F2E7C4
:1095A00000910023042202A9FFF77AFD029800F03F
:1095B00065FA05B05DF804FB0091002386E7009191
:1095C0000123EFE700208AE7131E09DB10B444688B
:1095D00008300A461844E11A5DF8044BFFF764BFEF
:1095E000002000F053BA00BF02F068B902F0BAB927
:1095F0000AF09EBAC11702F0C7B800BF02F0D8B88F
:1096000002F0E8B802F058B918B18188063002F0CB
:10961000C9BB704701F01CB9012001F077BB00BF46
:1096200000207047704700BF80880C30800870476A
:109630000320704740680B3080087047054B1B685B
:109640002BB15A688242FAD19A688A42F7D11846F9
:10965000704700BF640200202DE9F041104F3B68C5
:1096600013B90AE01B6843B15C68A042FAD19C6858
:10967000A142F7D1DA60BDE8F0810446102090469F
:109680000D460DF09BFE3B68064680E83800012140
:1096900040F80C8F01F0A0FB3E60BDE8F08100BFF8
:1096A0006402002070B50D1E064602DB35B90D4878
:1096B00070BD0DF00BFF0546002DF8D005F1090037
:1096C00001F02EFB044608B1074B0360A58026B1CC
:1096D00031462A46A01D03F067FD25440023AB71E7
:1096E000204670BD707D0100B07A010070B50D1E7E
:1096F00012DD064605F1080001F012FB044608B130
:10970000084B036065602A46314604F108002EB11B
:1097100003F04AFD204670BD034870BD04F09CFD77
:10972000204670BD507A0100647D0100014B186035
:10973000704700BF0400002030B40E4D2A68044674
:1097400021460020930983EAD273534083EA12131F
:1097500083EA92035208534042EAC37202F00103C3
:10976000490843EA4000EDD18442E9D32A6030BC85
:10977000704700BF0400002000210148FFF792BF9E
:10978000407F010000B583B002AB0022ADF8042099
:1097900003F8040D01211846FFF784FF03B05DF8BC
:1097A00004FB00BF00B583B020B1002902DB838831
:1097B000994206DB00210A48FFF774FF03B05DF809
:1097C00004FB014402A88B790022ADF8042001219A
:1097D00000F8043DFFF766FF03B05DF804FB00BF2F
:1097E000407F010070B50D46F8B10446818825B36D
:1097F00021B1AB882BB92646304670BD2E46304687
:1098000070BD19440020FFF74DFF831D0646A28856
:10981000A11D184603F0C8FC0346A088AA88184476
:10982000A91D03F0C1FC304670BD69B1AB88084C7E
:109830004FF46951002BDED0E3E719B101F569510E
:10984000034DDFE7024ED7E7014C4FF4E941F7E75C
:10985000C47D010088420AD008B5063106300DF0FB
:109860002BFE002805DB14BF0120002008BD0020CE
:1098700070474FF0FF3008BD808870470B46111EBF
:1098800011DD10B48488002BBCBF1B1923EAE373DD
:10989000E41AA14200F10600A8BF214618445DF871
:1098A000044BFFF7FFBE00210148FFF7FBBE00BFDE
:1098B000407F010098B191B1002A10DB8B8810B570
:1098C00084881344A34207DC841DA01806310DF0E0
:1098D00005FE08B1001B10BD4FF0FF3010BD4FF06A
:1098E000FF30704708B5FFF7E5FF013018BF0120D2
:1098F00008BD00BFB0FA80F04009704738B50C1EB3
:10990000034612D1002845D002460B4604460D46B8
:109910000CF05AF900283FD10C2001F001FA08B1EF
:109920001E4B03604460856038BDC4F30A55A5F240
:10993000FF321D2A25D8142A0DDC0028E4D1A5F217
:10994000F33514FA05F3DFD1E002C2F11F0240F053
:109950000040D0400EE0A5F2134510FA05F5D3D132
:10996000E002C2F11F0140F00040C2F13402C840E1
:10997000D3401843002CB8BF4042400040F00100E3
:1099800038BD1E2AC0D10028BED1054B9C42BBD198
:10999000044838BD012038BD0E2038BD807A010052
:1099A0000000D0C1010000802DE9F041054682B0E1
:1099B000841D204601A9FAF773FCAA88019B144470
:1099C000A34208D0204F002630463946FFF796FFC5
:1099D00002B0BDE8F0810022002306460F460CF0DD
:1099E000C1F80028F0D127F00045304629464FF055
:1099F000FF32164B34464FF001080CF0E5F840B941
:109A00004FF0FF32114B304629460CF0D3F800B925
:109A1000804618F0FF0FD5D100224FF48013204666
:109A200029464FF001080CF0CFF838B920462946F6
:109A300000224FF480130CF09FF818B118F0FF0FBC
:109A4000C2D0BFE78046F9E70000F87FFFFFEF7F55
:109A500008B50BF0B9FDBDE80840FFF74FBF00BFE8
:109A600050B1002908DB8388994205DA08448079DF
:109A7000400040F0010070470E20704708B50BF021
:109A8000B5FDBDE80840FFF739BF00BF4300B0EBAC
:109A9000630F01D0FFF7DCBF43F00100704700BF48
:109AA000B0F1804F08B503D2400040F0010008BD7E
:109AB0000BF07AFDBDE80840FFF720BF002814BF77
:109AC00042200A20704700BF08B5FAF779FDBDE8CB
:109AD0000840FFF713BF00BF01FB00F0704700BF55
