:020000040800F2
:108000000080012045650108A97D01081DE00108E7
:108010001DE001081DE001081DE00108000000004E
:10802000000000000000000000000000AD7D01081D
:10803000B17D010800000000B57D0108B97D01088F
:108040001DE001081DE001081DE001081DE0010818
:108050001DE001081DE00108C96F0108CD6F01088E
:10806000D16F0108D56F0108D96F0108497B01085C
:10807000597B0108697B0108797B0108897B01082C
:10808000997B0108A97B01081DE001081DE001089A
:108090001DE001081DE001081DE00108DD6F010879
:1080A0001DE001081DE001081DE001081DE00108B8
:1080B0001DE001081DE001081DE001081DE00108A8
:1080C0001DE001081DE001081DE001086D730108B5
:1080D00079730108A1770108AD7701081DE0010857
:1080E000E16F01081DE001081DE001081DE0010825
:1080F0001DE001081DE001081DE00108B97B010831
:108100001DE001081DE00108A1790108857301083F
:108110001DE001081DE001081DE001081DE0010847
:10812000C97B0108D97B0108E97B0108F97B0108BB
:10813000097C01081DE001081DE001081DE001089F
:108140001DE001081DE001081DE001081DE0010817
:10815000197C0108297C0108397C0108B9770108DC
:108160001DE001081DE001081DE001081DE00108F7
:108170001DE001081DE001081DE0010800000000ED
:108180001DE001081DE001081DE001081DE00108D7
:10819000917301081DE001081DE001081DE00108C0
:1081A0001DE001081DE001081DE001081DE00108B7
:1081B0001DE00108000000002DE9F04F002383B00E
:1081C0001646002205460C4614F09EFA002876D189
:1081D000284621460022002314F08CFA30B13022C8
:1081E00000233270737003B0BDE8F08F284621463B
:1081F00015F0EAF814F0C6FA21460746019046A3A6
:10820000D3E90023284614F093FA00285DD1019A9F
:108210004549002014F066FB02460B4628462146DD
:1082200014F02AF9012705460C46DFF8FC904FF0C0
:10823000000A4FF000082146284614F0A3FA00F186
:1082400030033370834613F087FF02460B462846FF
:10825000214613F033FE4B46424613F0E3FF013F45
:1082600004BF2E23737005460C4614BF0136023638
:10827000BAF1000F06D1BBF1000F0CBFDA464FF088
:10828000010AD8E70AF1010ABAF1100FD3DD002F75
:10829000D1DC16F8013C302B06F1FF3603D116F87D
:1082A000013D302BFBD001982E2B08BF06F1FF3685
:1082B000012826D10023737003B0BDE8F08F2D2371
:1082C000337004F10044013682E72846214614A3A6
:1082D000D3E9002314F018FA002898D0002F18DDF5
:1082E0003A460020104914F0FDFA0B46024621469A
:1082F000284614F0C1F80123013705460C460193C6
:1083000093E76523B11C737003B0BDE8F04F0BF029
:10831000B7BB0127019788E78DEDB5A0F7C6B03E42
:1083200050EFE2D6E41A4B44000024400000000065
:1083300070B54FF0FF3005F0B1F804466FF07F40A4
:1083400005F0ACF80646204613F0F6FE00220C4B72
:1083500013F068FF044630460D4613F0EDFE06A309
:10836000D3E9002314F088F802460B46204629463C
:1083700013F0A6FD70BD00BF0000E0DFFFFF6F43FC
:108380000000F03D000000004F4A21F000439342FE
:108390002DE970430D4604464FDC4C4A93420E468D
:1083A0000FDC45A3D3E9002313F08AFD0022484BDC
:1083B00014F0C8F9002856D02B4620461946BDE8CF
:1083C0007083444A934242DCB3F1804F4BDD14F09A
:1083D0007FFC2246804689462B462046294613F0DC
:1083E00021FF00223A4B13F06BFD15F0C5FB02464E
:1083F0000B464046494613F063FD02460B460020FB
:10840000334914F039F8424604460D464B4640467F
:10841000494613F055FD0B4602462946204613F007
:108420004FFD01F0FDFE04460B46002E0BDC03F170
:10843000004320461946BDE870830B46024613F000
:108440003FFD04460B4620461946BDE8708314F0F4
:108450003FFC01F0E5FE1AA3D3E9002313F030FD41
:1084600004460B46E1E722462B462046294613F0F8
:10847000D9FE804689462046294614F029FC002270
:108480000446134B0D464046494613F019FD15F0BE
:1084900073FB00220E4B13F013FD02460B464046C1
:1084A000494613F0E9FF22462B4613F009FD00F080
:1084B000D3FA04460B46B8E79C7500883CE4377E47
:1084C000EF39FAFE422EE63FFFFFEF7FFFFF2F3E20
:1084D0000000F03F0000B0412DE9F84FC24B21F001
:1084E00000469E420D468A46044610DDBF4B9E4222
:1084F00000F3B58000F0B080BD4BBE49BE4CBAF170
:10850000000FD8BF0B4620461946BDE8F88FBB4B7D
:108510009E4200F3C180A3F1DE739E4240F3AB8024
:108520004FF0FF3B22462B462046294613F07AFEA9
:1085300002460B468046894613F074FE92A3D3E9A7
:10854000002306460F4613F06DFE91A3D3E90023E6
:1085500013F0B6FC32463B4613F064FE8EA3D3E91B
:10856000002313F0ADFC32463B4613F05BFE8CA3B8
:10857000D3E9002313F0A4FC32463B4613F052FE2D
:1085800089A3D3E9002313F09BFC32463B4613F04A
:1085900049FE87A3D3E9002313F092FC42464B46E1
:1085A00013F040FE84A3D3E9002380468946304679
:1085B000394613F037FE82A3D3E9002313F07EFC83
:1085C00032463B4613F02EFE7FA3D3E9002313F07F
:1085D00075FC32463B4613F025FE7DA3D3E900230C
:1085E00013F06CFC32463B4613F01CFE7AA3D3E931
:1085F000002313F063FC32463B4613F013FEBBF13D
:10860000FF3F02460B466ED04046494613F058FCE9
:1086100022462B4613F006FE794E7A4B4FEACB0BDF
:108620005E449B44DBE9002313F048FC22462B46C2
:1086300013F044FC0B460246D6E9000113F03EFC61
:10864000BAF1000F04460B46BFF65DAF01F10043DF
:1086500020461946BDE8F88F00283FF44DAF22466A
:108660002B462046294613F02BFC04460B46204699
:108670001946BDE8F88F5AA3D3E9002313F020FC74
:108680000022614B14F05EF800283FF449AF2B46FE
:1086900020461946BDE8F88F14F01AFB5B4B9E424A
:1086A00004460D4630DCA3F550239E4255DC0246BD
:1086B0000B4613F005FC0022534B13F0FFFB002286
:1086C00006460F464FF080432046294613F0F8FB3C
:1086D00002460B463046394613F0CEFE4FF0000BF3
:1086E00004460D461EE74046494613F0E9FB224684
:1086F0002B4613F097FD0B4602462946204613F001
:10870000DDFB04460B46FEE6414B9E421ADC00228E
:10871000404B13F0D3FB002206460F463D4B20464C
:10872000294613F07FFD0022374B13F0C9FB0246A8
:108730000B463046394613F09FFE4FF0020B0446BD
:108740000D46EFE602460B460020334913F094FE37
:108750004FF0030B04460D46E4E600222A4B13F0CB
:10876000ADFB002206460F46274B2046294613F054
:10877000A7FB02460B463046394613F07DFE4FF00C
:10878000010B04460D46CDE611DA22E33AAD903FE7
:10879000EB0D76244B7BA93F513DD0A0660DB13F38
:1087A0006E204CC5CD45B73FFF8300922449C23FA0
:1087B0000D5555555555D53F2F6C6A2C44B4A2BF65
:1087C0009AFDDE522DDEAD3F6D9A74AFF2B0B33F2D
:1087D000711623FEC671BC3FC4EB98999999C93FA5
:1087E0009C7500883CE4377EFFFF0F440000F07F5B
:1087F000FB21F93FFB21F9BF182D4454FFFFDB3F5C
:1088000048E8010868E801080000F03FFFFFF23F78
:10881000FF7F03400000F83F0000F0BF00000000B1
:108820002DE9F047C1F30A59A9F2FF36132E0B4682
:108830000D46044607468846824622DC002E4FDB62
:108840003D4A42FA06F901EA090202431ED038A362
:10885000D3E9002313F034FB0022002313F072FF4E
:1088600050B1002D04DD4FF4801343FA06F6B044F6
:1088700028EA09054FF0000A544629462046BDE87B
:10888000F087332E06DDB6F5806F3DD019462046C1
:10889000BDE8F087A9F213494FF0FF3222FA09F937
:1088A00010EA090FF2D022A3D3E9002313F008FB4A
:1088B0000022002313F046FF0028DDD0002D09DD43
:1088C000142E2FD00123C6F1340603FA06F6371909
:1088D00028BF9844454627EA090A54462946CDE769
:1088E00013A3D3E9002313F0EBFA0022002313F0C3
:1088F00029FF0028C0D0002D0FDB55EA040709D05E
:108900004FF0000A0D4DB7E702460B4613F0D8FAB8
:108910000446BCE7BA463D46AEE74FF0000A4FF0CA
:108920000045A9E705F10108D4E700BFAFF30080D7
:108930009C7500883CE4377EFFFF0F000000F03F8D
:10894000C1F30A522DE9F843A2F2FF36132E0B466B
:108950000D460446884607461DDC002E40DB3C4A97
:1089600042FA06F901EA09020243864618D036A304
:10897000D3E9002313F0A4FA0022002313F0E2FE4F
:1089800020B1002D42DB28EA090500273C46294694
:108990002046BDE8F883332E06DDB6F5806F2FD074
:1089A00019462046BDE8F883A2F213424FF0FF3982
:1089B00029FA02F910EA090FF2D023A3D3E9002320
:1089C00013F07EFA0022002313F0BCFE0028DDD055
:1089D000002D21DB454627EA09073C462946D7E713
:1089E00019A3D3E9002313F06BFA0022002313F03C
:1089F000A9FE0028CAD0002D19DB00273D46C5E797
:108A000002460B4613F05CFA0446CAE74FF48013A3
:108A100043FA06F6B044B6E7142E10D00123C6F18F
:108A2000340603FA06F6371928BF9844D2E725F032
:108A30000042084B224318BF1D460027A6E705F158
:108A40000108C7E7AFF300809C7500883CE4377EDF
:108A5000FFFF0F000000F0BF2DE9F04FD64B994209
:108A600089B00E460F46824613DCD44B21F00044F9
:108A70009C4218DD0022D24B13F03CFE002879D036
:108A8000002200230020CF4913F0F6FC09B0BDE816
:108A9000F08FCD4B99422FDD5246334613F010FA3A
:108AA00009B0BDE8F08FC94B9C4270DDC84B1F4434
:108AB0009F427ED8504631460022C64B13F000FA42
:108AC0004FEA215BABF2FF3BBBF1000F04460D46C2
:108AD0000F4640F3E0815246334613F0EFF9024669
:108AE0000B460020BB4913F0E9F922462B4613F050
:108AF000C3FCCDE900010BE0B74B9F42DADD002259
:108B00000023CDE900234FEA275B5446ABF2FF3B3D
:108B1000B24BC7F313079F4247F07F5500F3E7803E
:108B200045F44015204629460022AA4B13F0C6F909
:108B3000002204460D46AA4B13F074FB22462B4636
:108B400013F070FBA246CDE902012E46804689460D
:108B5000002F3AD1002200232046294613F0CAFDF7
:108B6000002800F0CE80BBF1000F40F0768100209D
:108B7000014695E7524633465046314613F09EF97A
:108B800002460B4613F078FC09B0BDE8F08F0022D6
:108B9000944B13F095F90022002313F0D3FD002825
:108BA00000F0CC80904B9C4200F3C8805046314688
:108BB00076E700228A4B13F035FB5246334613F01A
:108BC00031FB4FF0000B8046894600224FF0804376
:108BD0005046314613F074F902460B465046314672
:108BE00013F04AFC02460B46CDE9022313F01AFBB0
:108BF0005DA3D3E9002304460D4613F013FB5CA3E9
:108C0000D3E9002313F05CF922462B4613F00AFB4C
:108C100059A3D3E9002313F053F922462B4613F04E
:108C200001FB57A3D3E9002313F04AF922462B4650
:108C300013F0F8FA54A3D3E9002313F041F92246C4
:108C40002B4613F0EFFA52A3D3E9002313F038F9BF
:108C500022462B4613F0E6FA4FA3D3E9002313F084
:108C60002FF922462B4613F0DDFA04460D46BBF1E0
:108C7000000F00F0BB80584613F06EFA48A3D3E90A
:108C80000023CDE9040113F0CDFA4246CDE90601F7
:108C90004B462046294613F013F9DDE9022313F071
:108CA000C1FA41A3D3E9002304460D46DDE90401DE
:108CB00013F0B8FADDE9002313F002F902460B467F
:108CC0002046294613F0FCF802460B46404649462A
:108CD00013F0F4F85246334613F0F0F802460B4610
:108CE000DDE9060113F0EAF809B0BDE8F08F45F4BC
:108CF0000015C7F5801720462946BF100BF1010B60
:108D000012E72BA3D3E900232046294613F08AFA61
:108D100002460B4600202F4913F0D0F8DDE902236C
:108D200013F080FA06460F46BBF1000F6DD10246E4
:108D30000B462046294613F0C1F8B1E652463346A9
:108D40005046314613F06EFA0022254B13F06AFAB2
:108D500002460B465046314613F0B0F809B0BDE864
:108D6000F08F00BFAFF3008044523EDF12F1C23FEC
:108D70009FC678D0099AC33FDE03CB966446C73FAF
:108D8000AF788E1DC571CC3F599322942449D23FB0
:108D900004FA97999999D93F935555555555E53FFB
:108DA0000000E0FE422EE63F763C7935EF39EA3DA1
:108DB000555555555555E53F7982DA3FFFFFEF3F51
:108DC0000000F0BF000050C3FFFFEF7FFFFF1F3E1A
:108DD0003C412D400000F03FFFFF3F439DA00600B7
:108DE0000000E03F00005043FFFF8F3C42464B46EF
:108DF00013F066F8DDE9022313F014FA02460B467D
:108E00004046494613F05AF8A2E7584613F0A4F931
:108E100027A3D3E9002382468B4613F003FA26A347
:108E2000D3E90023804689465046594613F0FAF9A3
:108E3000DDE9002313F044F802460B46304639467C
:108E400013F03CF822462B4613F038F802460B4646
:108E50004046494613F032F822E6584613F07CF9B2
:108E600015A3D3E9002306460F4613F0DBF9DDE92D
:108E7000002313F025F80EA3D3E9002304460D4682
:108E80003046394613F0CEF902460B4620462946B5
:108E900013F016F804E60022094B13F00FF802460F
:108EA0000B465046314613F009F81EE6AFF300803A
:108EB0000000E0FE422EE63F763C7935EF39EA3D90
:108EC0000000F03F0000000008B514F001FA04A310
:108ED000D3E9002313F0D0FA08BD00BFAFF3008040
:108EE000EF39FAFE422EE63F2DE9F043DFF8B48079
:108EF0008BB004460D4600F06BFF98F9003001334B
:108F000006460F462BD022462B462046294613F014
:108F100023FC814618BB2046294613F0D9FE1CA32A
:108F2000D3E9002313F00EFCC8B11B4A98F90030B6
:108F3000CDF820900321CDE90445CDE902458DE827
:108F400006008BB9154B4FF06042CDE90623684609
:108F500014F0D4FE70B1089B9BB9DDE9066730467A
:108F600039460BB0BDE8F0830D490020022BCDE956
:108F70000601ECD114F06AFF22230360089B002B4A
:108F8000EBD014F063FF089B0360E6E7AFF30080CB
:108F90007DF8B98FCE338640C0F70108FFFFEF4759
:108FA0000000F07F7E0300202DE9F043DFF8E4802D
:108FB0008BB004460D4600F0BBFF98F9003001333A
:108FC00006460F4633D02046294614F091FE70B372
:108FD00029A3D3E900232046294613F0B3FB814699
:108FE00050BB27A3D3E900232046294613F08CFB6E
:108FF000E8B198F90030244ACDF8209004260020EA
:109000000021022BCDE90445CDE9024500960192ED
:10901000CDE9060129D0684614F070FE28B3089BFC
:109020001BB114F013FF089B0360DDE906673046AF
:1090300039460BB0BDE8F083134A98F9003001922D
:1090400003210022CDE90445CDE9024500910892B3
:109050002BB90E4B4FF06042CDE90623DBE70C49FC
:109060000020022BCDE90601D5D114F0EFFE22231A
:109070000360D4E7AFF30080EF39FAFE422E86405A
:1090800051302DD5104987C0C8F70108FFFFEF47C1
:109090000000F07F7E0300202DE9F84FC44E21F040
:1090A0000043B3420C4605460DDD03F1404303F592
:1090B0008013034340F0B980002940F34081002031
:1090C0000021BDE8F88FBB4EB34240F3A6800029D3
:1090D000C0F2788102460B460020B74912F0EEFE3E
:1090E0000022B64B13F09EF804460D4614F044FDE2
:1090F00095A3D3E90023894680462946204613F0EC
:1091000091F893A3D3E9002312F0DAFE22462B460E
:1091100013F088F890A3D3E9002312F0CFFE224683
:109120002B4613F07FF88EA3D3E9002312F0C8FE7C
:1091300022462B4613F076F88BA3D3E9002312F0D6
:10914000BDFE22462B4613F06DF889A3D3E9002318
:1091500012F0B6FE22462B4613F064F886A3D3E93C
:10916000002382468B462046294613F05BF884A3F1
:10917000D3E9002312F0A2FE22462B4613F052F848
:1091800081A3D3E9002312F09BFE22462B4613F065
:1091900049F87FA3D3E9002312F090FE22462B4624
:1091A00013F040F80022844B12F08AFE02460B4670
:1091B0005046594613F060F942464B4613F032F8D8
:1091C000002682468B4632464B463046494613F0CF
:1091D00029F802460B462046294612F06FFE324619
:1091E00004460D464B464046494612F069FE02468B
:1091F0000B462046294613F03FF902460B465046DF
:10920000594612F05DFE32464B4612F059FE0246B8
:109210000B4612F055FEBDE8F88F694A93420EDC0A
:109220005DA1D1E90001BDE8F88F02460B4612F0BE
:1092300045FE02460B4613F01FF9BDE8F88F0246C3
:109240000B4612F0EFFF40A3D3E9002306460F467A
:1092500012F0E8FF3EA3D3E9002312F031FE3246BC
:109260003B4612F0DFFF3CA3D3E9002312F026FEB9
:1092700032463B4612F0D6FF39A3D3E9002312F061
:109280001FFE32463B4612F0CDFF37A3D3E9002341
:1092900012F014FE32463B4612F0C4FF34A3D3E969
:1092A000002312F00DFE32463B4612F0BBFF32A304
:1092B000D3E90023804689463046394612F0B2FF92
:1092C0002FA3D3E9002312F0F9FD32463B4612F0FA
:1092D000A9FF2DA3D3E9002312F0F2FD32463B464D
:1092E00012F0A0FF2AA3D3E9002312F0E7FD3246D3
:1092F0003B4612F097FF00222F4B12F0E1FD024691
:109300000B464046494613F0B7F82A46234612F06A
:1093100089FF02460B4622A1D1E9000112F0CEFDE1
:1093200002460B462846214612F0C8FD02460B466F
:1093300019A1D1E9000112F0C1FDBDE8F88F1AA111
:10934000D1E90001BDE8F88F09F7FD0DE13D023FCD
:1093500088B20175E0EF493F3B8F68B52882A43F92
:109360005544880E55C1C93F7D6FEB0312D6D43FDB
:10937000555555555555C53F82922EB1C5B8B33F89
:1093800059018D1B6C06E63FC88A599CE52A0040AE
:109390004B2D8A1C273A0340182D4454FB21F93FDA
:1093A000075C143326A6913C182D4454FB21094038
:1093B000FFFFEF3FFFFFDF3F0000F03F0000E03F17
:1093C0000000603C00225C4B12F07AFD00225B4BF7
:1093D00012F028FF40A3D3E9002304460D4612F003
:1093E00021FF3FA3D3E9002312F06AFD22462B465A
:1093F00012F018FF3CA3D3E9002312F05FFD2246D0
:109400002B4612F00FFF3AA3D3E9002312F058FDC8
:1094100022462B4612F006FF37A3D3E9002312F0B1
:109420004DFD22462B4612F0FDFE35A3D3E9002365
:1094300012F046FD22462B4612F0F4FE8046894685
:109440002046294614F098FB2FA3D3E900230646B3
:109450000F462046294612F0E5FE2DA3D3E900234E
:1094600012F02CFD22462B4612F0DCFE2AA3D3E993
:10947000002312F025FD22462B4612F0D3FE28A32E
:10948000D3E9002312F01AFD22462B4612F0CAFE41
:109490000022294B12F014FD02460B464046494675
:1094A00012F0EAFF32463B4612F0BCFE1EA3D3E99F
:1094B000002312F003FD32463B4612F001FD024646
:1094C0000B4612F0FDFC02460B4619A1D1E9000142
:1094D00012F0F4FCBDE8F88F09F7FD0DE13D023F05
:1094E00088B20175E0EF493F3B8F68B52882A43F01
:1094F0005544880E55C1C93F7D6FEB0312D6D43F4A
:10950000555555555555C53F82922EB1C5B8B33FF7
:1095100059018D1B6C06E63FC88A599CE52A00401C
:109520004B2D8A1C273A0340075C143326A6913C36
:10953000182D4454FB2109400000F03F0000E03F9B
:10954000434A91422DE9F8430C46054639DD414A2C
:10955000914209DD02F17952914240DD02460B460B
:1095600012F0AEFCBDE8F88301F1404202F5801232
:10957000024330D0B1F1804F3ADC0022364B12F07A
:109580009DFC02460B4604460D4612F099FC22460D
:1095900006460F462B462046294612F043FE024659
:1095A0000B463046394612F08BFC14F0E5FA0B46B8
:1095B00002462946204612F083FCBDE8F843FFF737
:1095C0004BBA02460B4612F079FC02460B4612F0EB
:1095D00053FFBDE8F88300200021BDE8F88300F0C8
:1095E0001FFE19A3D3E9002312F06AFCBDE8F8833B
:1095F00002460B4612F016FE0022174B12F05EFCDC
:1096000014F0BAFA2A46804689462346284621465F
:1096100012F056FC424606460F464B462846214667
:1096200012F04EFC02460B4600200B4912F024FFBC
:109630000B4602463946304612F040FCBDE8F8437E
:1096400000F0EEBDAFF30080EF39FAFE422EE63FA8
:10965000FFFFEF3FFFFFAF410000F03F00000000C1
:109660002DE9F047C44B21F00048984584B00D46E1
:10967000044616DD08F1404808F58018034658EA0C
:10968000030326D002460B4612F018FC0B46024696
:1096900012F0F2FE04460B462046194604B0BDE81F
:1096A000F087B64B98458A462EDCB8F1795F80F298
:1096B0006D8195A3D3E9002312F002FC0022B04B88
:1096C00013F040F800B32B462046194604B0BDE81D
:1096D000F0878FA3D3E9002312F0A4FD8EA3D3E972
:1096E000002306460F462046294612F09BFD0246FF
:1096F0000B463046394612F0E3FB04460B46204643
:10970000194604B0BDE8F0872046294613F0E0FA78
:1097100002460B4600209A4912F0D0FB0022994BDA
:1097200012F080FD7EA3D3E9002304460D4612F01B
:1097300079FD7DA3D3E9002312F0C2FB22462B461C
:1097400012F070FD7AA3D3E9002312F0B7FB224692
:109750002B4612F067FD78A3D3E9002312F0B0FB8B
:1097600022462B4612F05EFD75A3D3E9002312F0CA
:10977000A5FB22462B4612F055FD73A3D3E9002327
:1097800012F09EFB22462B4612F04CFD70A3D3E94B
:109790000023CDE900012046294612F043FD6EA3C7
:1097A000D3E9002312F08AFB22462B4612F03AFD41
:1097B0006BA3D3E9002312F083FB22462B4612F061
:1097C00031FD69A3D3E9002312F078FB22462B4632
:1097D00012F028FD6A4B002212F072FBCDE9020163
:1097E0002046294614F0C8F9674B984506460F46AF
:1097F00067DCDDE90223DDE9000112F03DFE3246BF
:10980000CDE900013B463046394612F059FB02468D
:109810000B46DDE9000112F005FD4FF00008CDE92F
:10982000000142463B464046394612F0FBFC0246E8
:109830000B462046294612F041FB424604460D469F
:109840003B463046394612F03BFB02460B4620466B
:10985000294612F011FE02460B4612F031FB024679
:109860000B462DA1D1E9000112F028FB02460B4660
:10987000DDE9000112F022FB424604460D463B465C
:109880004046394612F01CFB02460B4638A1D1E98E
:10989000000112F013FB02460B462046294612F047
:1098A0000DFB0B46024632A1D1E9000112F006FB86
:1098B00004460B46BAF1000F3FF7EEAE03F100434A
:1098C000EAE6DDE90223DDE9000112F0D5FD3246CA
:1098D0003B4612F0A7FC32463B4612F0F1FA024634
:1098E0000B4612F0EDFA0CA3D3E9002312F0E6FACE
:1098F0000B46024606A1D1E9000112F0DFFA044648
:109900000B46D7E7AFF300809C7500883CE4377EB8
:10991000182D4454FB21F93F075C143326A6913CD3
:1099200009F7FD0DE13D023F88B20175E0EF493FC7
:109930003B8F68B52882A43F5544880E55C1C93F66
:109940007D6FEB0312D6D43F555555555555C53F40
:1099500082922EB1C5B8B33F59018D1B6C06E63F0C
:10996000C88A599CE52A00404B2D8A1C273A03409F
:10997000182D4454FB21E93FFFFFEF3FFFFFDF3F7E
:109980000000F03F0000E03F3233EF3F02460B465D
:1099900012F048FC38A3D3E9002306460F4612F024
:1099A00041FC37A3D3E9002312F08AFA32463B4642
:1099B00012F038FC34A3D3E9002312F07FFA3246C8
:1099C0003B4612F02FFC32A3D3E9002312F078FAC1
:1099D00032463B4612F026FC2FA3D3E9002312F0B7
:1099E0006DFA32463B4612F01DFC2DA3D3E900234D
:1099F00012F066FA32463B4612F014FC2AA3D3E971
:109A00000023804689463046394612F00BFC28A3D5
:109A1000D3E9002312F052FA32463B4612F002FC20
:109A200025A3D3E9002312F04BFA32463B4612F04D
:109A3000F9FB23A3D3E9002312F040FA32463B4658
:109A400012F0F0FB0022204B12F03AFA02460B46CD
:109A50004046494612F010FD22462B4612F0E2FB2A
:109A600022462B4612F02CFA04460B462046194695
:109A700004B0BDE8F08700BF09F7FD0DE13D023FEE
:109A800088B20175E0EF493F3B8F68B52882A43F5B
:109A90005544880E55C1C93F7D6FEB0312D6D43FA4
:109AA000555555555555C53F82922EB1C5B8B33F52
:109AB00059018D1B6C06E63FC88A599CE52A004077
:109AC0004B2D8A1C273A03400000F03F00000000A5
:109AD0002DE9F84F5442144323F00049704E49EAEF
:109AE000D474B44286460F4640D84442044321F021
:109AF000004B4BEAD474B4428A4637D803F1404451
:109B000004F5801414434AD09C1704F0020444EA7C
:109B1000D17450EA0B0131D052EA090137D0B14576
:109B200052D0B34533D0ABEB09094FEA2959B9F10B
:109B30003C0F3BDC002B66DB7046394612F09CFC88
:109B400013F0C6F8FEF7C8FC012C58D0022C48D000
:109B5000002C5ED040A3D3E9002312F0AFF940A35C
:109B6000D3E9002312F0AAF9BDE8F88F1046194690
:109B700072463B4612F0A4F9BDE8F88F022C19D0CA
:109B8000032C10D138A1D1E90001BDE8F88FBAF15A
:109B9000000F14DB36A1D1E90001BDE8F88FBDE864
:109BA000F84FFEF799BC3946BDE8F88F30A1D1E9EE
:109BB0000001C9E72AA1D1E90001BDE8F88F2EA173
:109BC000D1E90001BDE8F88FCB4524D0022CF1D0BB
:109BD000032CD7D0012C4FF0000027D00021BDE886
:109BE000F88F1DA3D3E9002312F068F902460B4653
:109BF0001BA1D1E9000112F061F9BDE8F88F01F174
:109C00000041BDE8F88F19F13C0F95DA00200021E2
:109C10009AE7BDE8F88F022C16D0032C0FD0012C48
:109C200008D017A1D1E90001BDE8F88F4FF000413D
:109C3000BDE8F88F14A1D1E90001BDE8F88F14A1A7
:109C4000D1E90001BDE8F88F13A1D1E90001BDE819
:109C5000F88F00BFAFF30080075C143326A6A13C49
:109C6000182D4454FB210940182D4454FB2109C0F0
:109C7000182D4454FB21F93F182D4454FB21F9BF02
:109C8000182D4454FB21E93F182D4454FB21E9BF12
:109C9000D221337F7CD902C0D221337F7CD90240CC
:109CA0000000F07F0000000043422DE9F04703432D
:109CB00021F00048424A48EAD373934206460F46D1
:109CC00016D890454BD03F4B98458A461EDC3AA3A8
:109CD000D3E90023044612F0F3F80022002312F027
:109CE00031FD002845D03B4620461946BDE8F087A7
:109CF00002460B4612F0E2F80B46024612F0BCFB9D
:109D000004460B4620461946BDE8F0872E4B984581
:109D1000044645462FDD02464346414612F0D0F840
:109D2000224606460F4643460020254912F0C6F853
:109D300002460B463046394612F09EFBFEF78CFE7B
:109D4000224B002212F06EFABAF1000F04460B46C5
:109D5000D8DA01F1004320461946BDE8F087002219
:109D6000002312F089FB04460B4620461946BDE845
:109D7000F0873446454622462B462046294612F0B7
:109D80009FF822462B4606460F4612F04BFA224613
:109D9000804689462B460020094912F08FF802467A
:109DA0000B464046494612F067FB32463B4612F0EE
:109DB00087F8C3E7AFF300809C7500883CE4377EEA
:109DC0000000F03FFFFF2F3EFFFFDF3F0000E03FBE
:109DD0004F4A2DE9F84321F0004494420B460546D2
:109DE0001BDC4C4A944222DD4B4A944263DD4B4AD1
:109DF00094427BDD4A4A944246DD0132944240D08F
:109E000041A3D3E900231046194612F00BFA064687
:109E10000F4630463946BDE8F88302460B4612F03D
:109E200001FA06460F4630463946BDE8F88312F07F
:109E30004FFF02F0A9FC00223A4B8046894612F0FF
:109E40003FF8B4F1725F06460F46ECDB42464B46E4
:109E50004046494612F0E6F932463B4604460D4676
:109E60003046394612F02CF802460B462046294669
:109E700012F002FB00222B4B12F022F806460F468E
:109E8000D1E7294A9042BBD82846194612F020FF54
:109E90000022264B12F0C6F900F04AF800220446D0
:109EA0000D46224B12F0BEF922462B4612F0BAF9AB
:109EB00006460F46B7E712F00BFF00F039F8002214
:109EC0001A4B06460F4612F0ADF932463B460446A1
:109ED0000D460020154912F0CFFA02460B462046E7
:109EE000294611F0EDFF06460F469CE712F0F0FE02
:109EF00000F01EF800220D4B12F094F906460F46B2
:109F000091E700BFAFF300809C7500883CE4377E8A
:109F1000FFFFEF7F422ED63FFFFF3540412E8640A8
:109F2000CD3386400000F03F7DF8B98F0000E03F60
:109F30002DE9F04FB04F21F00042BA4283B00C46F9
:109F40004FEAD17605460DD9AC4FBA4225D9C1F3B7
:109F50001303034340F0EF800EB10020014603B02D
:109F6000BDE8F08FA64B9A4200F2CC80A54B9A42F6
:109F700000F2DE808AA3D3E9002311F0A1FF0022C2
:109F8000A14B12F0DFFB002800F005812846214696
:109F900000229D4B11F094FFE1E783A3D3E9002356
:109FA00012F0D0FB002840F0CB802846214680A349
:109FB000D3E9002312F0A8FB0028CED1934B28460A
:109FC00003EBC60621467CA3D3E9002312F02AF94D
:109FD000D6E9002311F074FF12F0D4FB804612F092
:109FE000BBF877A3D3E9002306460F4612F01AF90F
:109FF00002460B462846214611F060FF72A3D3E9C2
:10A000000023CDE900013046394612F00BF98246B3
:10A010008B4652465B46DDE9000111F04FFF0546D5
:10A020000C462A4623462846214612F0FBF868A330
:10A03000D3E9002306460F4612F0F4F866A3D3E9ED
:10A04000002311F03BFF32463B4612F0EBF864A3CD
:10A05000D3E9002311F034FF32463B4612F0E2F818
:10A0600061A3D3E9002311F029FF32463B4612F0E9
:10A07000D9F85FA3D3E9002311F022FF32463B4613
:10A0800012F0D0F802460B462846214611F016FF82
:10A0900006460F462846214632463B46B8F1000F99
:10A0A00056D012F0BFF8324604460D463B4600201B
:10A0B0004FF0804111F002FF02460B462046294630
:10A0C00012F0DAF902460B465046594611F0F6FEF8
:10A0D000DDE9002311F0F2FE0B4602464A4900205A
:10A0E00011F0ECFE6FF47F7398454FDA08F57A783B
:10A0F00001EB085100224FF0B87312F093F803B04F
:10A10000BDE8F08F424B9A423FF658AF414BF40006
:10A110002344D3E9002311F0D1FE3F4BC6F10108DF
:10A120002344CDE90001D3E900ABA8EB060870E7B2
:10A130004FF0000875E702460B4611F0C1FE0EE72E
:10A1400017A3D3E900231046194612F06BF806E76F
:10A1500012F068F80022804689464FF0804330466E
:10A16000394611F0ABFE02460B464046494612F016
:10A1700083F92A46234611F0A1FE02460B46002031
:10A18000214911F09BFE03B0BDE8F08F01EB0851AF
:10A1900003B0BDE8F08F804643E700BFAFF3008017
:10A1A0009C7500883CE4377EEF39FAFE422E8640EB
:10A1B00051302DD5104987C0FE822B654715F73FDA
:10A1C0000000E0FE422EE63F763C7935EF39EA3D6D
:10A1D000D0A4BE726937663EF16BD2C541BDBB3EAD
:10A1E0002CDE25AF6A56113F93BDBE166CC1663F8B
:10A1F0003E5555555555C53F412E8640FFFFEF7FD3
:10A20000422ED63FFFFF2F3E0000F03F88E80108B6
:10A21000B1A2F03F98E80108A8E80108000000009A
:10A220002DE9F04FB1F5801F85B006460F460B466D
:10A230005ADA024621F00044224300F0F880002957
:10A24000C0F27A810022D64B11F0ECFFD54A0B46C2
:10A25000934206460F466FF0350C4ADCC3F31305F4
:10A2600005F5152E0EF6647E0EF4801E8EF07F52DC
:10A2700082F440121C1542EA0507A4F2FF3464443C
:10A280000022C94B3046394604EB1E5411F016FE2D
:10A29000AB1CC3F31303022B82468B464FF0000224
:10A2A00030DC002312F026FA002800F0C980002CD0
:10A2B00000F04B81204611F04FFFA5A3D3E9002306
:10A2C00006460F4611F0AEFFA3A3D3E900230446D0
:10A2D0000D463046394611F0A5FF02460B46204692
:10A2E000294611F0EDFD0AE0AE4A93424FF0000C12
:10A2F000B4DD32463B463046394611F0E1FD05B04B
:10A30000BDE8F08F4FF0804311F0DAFD02460B46B6
:10A310005046594612F0B0F8064620460F4611F056
:10A320001BFF3246CDE900013B4630463946CDE9B8
:10A33000026711F077FF02460B468046894611F00E
:10A3400071FF87A3D3E9002306460F4611F06AFF89
:10A3500085A3D3E9002311F0B3FD32463B4611F04B
:10A3600061FF83A3D3E9002311F0AAFD32463B46E7
:10A3700011F058FF80A3D3E9002311F0A1FD42465C
:10A380004B4611F04FFF7EA3D3E900238046894658
:10A390003046394611F046FF7BA3D3E9002311F084
:10A3A0008FFD32463B4611F03DFF79A3D3E90023F0
:10A3B00011F086FD32463B4611F034FF0B46024653
:10A3C0004946404611F07CFDA5F5C223C5F5D725C9
:10A3D000A3F27A4351351D43002D8046894656DD50
:10A3E0000022724B5046594611F01CFF52465B4604
:10A3F00011F018FF06460F46002C68D132463B4646
:10A400004046494611F05CFDDDE9022311F00AFFE8
:10A4100002460B463046394611F050FD02460B46C7
:10A420005046594611F04AFD05B0BDE8F08F0022B4
:10A43000002300205E4912F01FF805B0BDE8F08F40
:10A4400055A3D3E900235046594611F0EBFE0246CE
:10A450000B460020554911F031FD524606460F4685
:10A460005B465046594611F0DDFE02460B4630462B
:10A47000394611F0D7FE06460F46002C40F09A8070
:10A4800002460B465046594611F018FD37E7002C9E
:10A4900000F0A4802EA3D3E90023DDE9000111F030
:10A4A000C1FE42464B4604460D465046594611F001
:10A4B00005FDDDE9022311F0B5FE27A3D3E9002352
:10A4C00006460F46DDE9000111F0ACFE21E020A3B5
:10A4D000D3E90023DDE9000111F0A4FE32463B463A
:10A4E00004460D464046494611F0EAFCDDE90223E8
:10A4F00011F098FE18A3D3E9002380468946DDE9D0
:10A50000000111F08FFE02460B464046494611F00D
:10A51000D7FC02460B463046394611F0CFFC524676
:10A520005B4611F0CBFC02460B462046294611F053
:10A53000C5FC05B0BDE8F08F02460B4611F0BEFC2D
:10A540000022002311F098FFD9E600200021D6E672
:10A550000000E0FE422EE63F763C7935EF39EA3DD9
:10A5600044523EDF12F1C23FDE03CB966446C73F42
:10A57000599322942449D23F935555555555E53F5B
:10A580009FC678D0099AC33FAF788E1DC571CC3F66
:10A5900004FA97999999D93F555555555555D53F31
:10A5A00000005043FFFFEF7F0000F03F0000E03F5E
:10A5B000000050C3204611F0CFFD0FA3D3E90023C4
:10A5C0008046894611F02EFE0DA3D3E900230446F0
:10A5D0000D464046494611F025FE9AE702460B46D5
:10A5E0005046594611F06AFCDDE9022311F01AFECB
:10A5F00014E700BFAFF300800000E0FE422EE63F0C
:10A60000763C7935EF39EA3DB1F5801F2DE9F84305
:10A6100004460D460B461ADA024621F00046324344
:10A6200059D000295FDB00223B4B11F0FBFD3B4A78
:10A630000B4693420D4604466FF035010CDD224671
:10A640002B462046294611F03BFCBDE8F883334AEF
:10A6500093424FF00001F2DC1815A0F2FF300844DD
:10A660004FEAD0794844C3F3130811F075FDC9F5DA
:10A670007F73033348EA035506460F4620462946B2
:10A68000FFF7CEFD1EA3D3E900238046894630465E
:10A69000394611F0C7FD1CA3D3E9002304460D463B
:10A6A0004046494611F0BEFD02460B46204629466B
:10A6B00011F006FC16A3D3E9002304460D463046EC
:10A6C000394611F0AFFD02460B462046294611F0EF
:10A6D000F7FBBDE8F883002200230020104911F0A9
:10A6E000CBFEBDE8F88302460B4611F0E7FB0022E3
:10A6F000002311F0C1FEBDE8F88300BFAFF3008076
:10A70000362BF111F3FE593D0EE526157BCBDB3FD1
:10A7100000609F501344D33F00005043FFFFEF7F82
:10A72000000050C3000000002DE9F04F23F0004767
:10A7300057EA020493B037D0674C21F00046A64296
:10A7400083460D4629DC9A46964625D0A74224DC4E
:10A75000614CA74279D0002D89468046CDE900237F
:10A7600077DB0024BEF1000F2CD15B4B9F4200F041
:10A770008B805A4B9F4261D0BAF1804F00F0BA8370
:10A78000574B9A451ED1002D1CDB4046494613B05D
:10A79000BDE8F04F13F0F0B958B106F1404606F5A8
:10A7A000801656EA0B0306D14C49002013B0BDE8D1
:10A7B000F08FB742CCDD4B4813B0BDE8F04F13F03B
:10A7C0009FBA00244046494612F082FABBF1000FBE
:10A7D00019D126B1414B25F040429A4213D1BAF12A
:10A7E000000FC0F2BC83002DE0DA06F1404606F50A
:10A7F000801656EA040300F08F84012CD6D101F1B3
:10A8000000431946D2E7ED0F013D54EA05034ED04F
:10A81000354B9F426EDD03F104739F4240F3E883A2
:10A82000324B9E424EDDBAF1000F4EDD28A3D3E934
:10A8300000231046194611F0F5FCB7E7BAF1000FF6
:10A84000C0F23C8440464946B0E7BEF1000F82D0DA
:10A85000A3E7274B9F4228DCA3F154739F4280DD7E
:10A860003B15A3F2FF33142B40F33E84C3F13403B2
:10A870002EFA03F202FA03F39E457FF472AF02F060
:10A880000102C2F102046DE706F1404303F58013B3
:10A8900053EA0B0388D0154B9E4240F33283BAF142
:10A8A000000F12DBDDE9000180E702245AE742468F
:10A8B0004B464046494611F001FB02460B4611F05B
:10A8C000DBFD73E7BAF1000FB0DB002000216DE77C
:10A8D0009C7500883CE4377E0000F07F0000F03F6C
:10A8E0000000E03FC0EB01080000E041FFFFEF3F48
:10A8F000FFFF3F43B6F5801F4FF0000205DAD44B4F
:10A9000011F090FC6FF034020E463315D14FC6F3B0
:10A910001306A3F2FF33134446F07F5ABE421A4691
:10A920000D934AF4401A40F32183CB4B9E4240F3EF
:10A93000FD83134601330D93C84B0022CDE9062356
:10A9400000270026CDE90867CDE90E67AAF5801A31
:10A950000027024653465146CDE90A23DDE9062386
:10A9600011F0ACFADDE9062380468946DDE90A01EB
:10A9700011F0A6FA02460B460020B84911F07CFD02
:10A980000A460146CDE910121346494602464046A2
:10A9900011F048FC4FEA6A0343F000538C468346AB
:10A9A00003F50023CDE904BCDA468B46D919002310
:10A9B000CDE902AB0293DDE902AB002006460F466B
:10A9C00002460B465046594611F02CFC02460B46F7
:10A9D0004046494611F072FADDE906238046894671
:10A9E0003046394611F06AFA02460B46DDE90A01A3
:10A9F00011F064FA52465B4611F014FC02460B4615
:10AA00004046494611F05AFADDE9102311F00AFCDC
:10AA1000DDE90467CDE9060132463B46304639465A
:10AA200011F000FC78A3D3E9002306460F4611F08D
:10AA3000F9FB77A3D3E9002311F042FA32463B46F3
:10AA400011F0F0FB74A3D3E9002311F039FA324678
:10AA50003B4611F0E7FB72A3D3E9002311F030FA73
:10AA600032463B4611F0DEFB6FA3D3E9002311F021
:10AA700027FA32463B4611F0D5FB6DA3D3E90023FC
:10AA800011F01EFA3246804689463B46304639462A
:10AA900011F0C8FB02460B464046494611F0C2FB86
:10AAA000524606460F465B46DDE9040111F008FAFE
:10AAB000DDE9062311F0B6FB32463B4611F000FA01
:10AAC0005246804689465B465046594611F0AAFBDD
:10AAD0000022634BCDE90A0111F0F2F942464B46E0
:10AAE00011F0EEF902980F46064632463B465046B4
:10AAF000594611F097FB002282468B46584B304650
:10AB0000394611F0DBF9DDE90A2311F0D7F90246E5
:10AB10000B464046494611F0D1F9DDE9042311F016
:10AB200081FB3246804689463B46DDE9060111F04D
:10AB300079FB02460B464046494611F0C1F9804672
:10AB4000894602460B4650465946CDE904AB11F002
:10AB5000B7F9DDE902AB38A3D3E9002350460F462D
:10AB600011F060FBDDE90423CDE9020139465046CE
:10AB700011F0A4F902460B464046494611F09EF9F1
:10AB80002FA3D3E9002311F04DFB2FA3D3E900231A
:10AB9000804689465046394611F044FB02460B4632
:10ABA0004046494611F08CF9DDE90E2311F088F991
:10ABB00080460D98894611F0CFFA424606460F4668
:10ABC0004B46DDE9020111F07BF9DDE9082311F0C4
:10ABD00077F932463B4611F073F932463B46504610
:10ABE0008B4611F06BF9DDE9082311F067F9DDE917
:10ABF000022311F063F902460B464046494611F024
:10AC00005DF980462EE000BFEF4E454A287ECA3FE0
:10AC100065DBC9934A86CD3F01411DA96074D13FD0
:10AC20004D268F515555D53FFFAB6FDBB66DDB3FE2
:10AC3000033333333333E33F000000E009C7EE3F13
:10AC4000FD033ADC09C7EE3FF5015B14E02F3EBE81
:10AC5000000040438E98030079B60B000000F03FDF
:10AC6000000008408946013C54EA0503DDE9000183
:10AC700014BFD94CD94C0023CDE9043403460C460B
:10AC8000CDE9023400230293DDE9024522462B463A
:10AC900011F014F952465B4611F0C4FADDE90023C5
:10ACA00006460F464046494611F0BCFA02460B469E
:10ACB0003046394611F004F92246804689462B4633
:10ACC00050465946CDE9008911F0ACFA0B460246D0
:10ACD00006460F464046494611F0F2F8C04B9942ED
:10ACE00004460D468A4640F3168101F13F4303F5C1
:10ACF000E003034340F0EA81A3A3D3E90023DDE9A5
:10AD0000000111F0DDF83246804689463B46204678
:10AD1000294611F0D3F802460B464046494611F049
:10AD200011FD002840F0D281A8464FEA28534FF485
:10AD30008012A3F2FE3342FA03F35344C3F30A52E0
:10AD4000A84DA2F2FF321541C3F3130423EA050113
:10AD50000020C2F1140B44F48014BAF1000F024633
:10AD60000B4644FA0BFB30463946B8BFCBF1000B1B
:10AD700011F0A4F802460B4606460F46DDE9000135
:10AD800011F09EF84FEA0B5A0D46002480A3D3E938
:10AD900000232046294611F045FA3246804689466E
:10ADA0003B462046294611F089F802460B46DDE96C
:10ADB000000111F083F878A3D3E9002311F032FAEF
:10ADC00077A3D3E9002306460F462046294611F013
:10ADD00029FA02460B463046394611F071F806460C
:10ADE0000F4602460B464046494611F069F8424676
:10ADF0004B4604460D4611F061F802460B463046BC
:10AE0000394611F05BF82246804689462B4620469B
:10AE1000294611F007FA64A3D3E9002306460F463A
:10AE200011F000FA62A3D3E9002311F047F832468B
:10AE30003B4611F0F7F960A3D3E9002311F040F885
:10AE400032463B4611F0EEF95DA3D3E9002311F041
:10AE500035F832463B4611F0E5F95BA3D3E9002310
:10AE600011F02EF832463B4611F0DCF902460B4653
:10AE70002046294611F022F806460F4602460B46A8
:10AE80002046294611F0CEF90022CDE900014FF00D
:10AE900080433046394611F011F802460B46DDE991
:10AEA000000111F0E9FA424606460F464B4620469D
:10AEB000294611F0B7F942464B4611F001F8024617
:10AEC0000B463046394610F0F9FF22462B4610F06B
:10AED000F5FF02460B4600203F4910F0EFFF8A4481
:10AEE000BAF5801FC0F233815146DDE9042311F029
:10AEF00099F95BE4424640464B46494611F092F9C7
:10AF000054E4BAF1000FBFF6E0ACDDE900341846B6
:10AF100004F100414AE4344B21F00048984540F3E5
:10AF2000F280324B0B4403430CD132463B4610F0C7
:10AF3000C5FF02460B46DDE9000111F0EFFB0028DA
:10AF40003FF4F3AEDDE9040121A3D3E9002311F0BE
:10AF500069F91FA3D3E9002311F064F926E402463E
:10AF60000B4600201C4911F087FA3CE40022002324
:10AF7000CDE90823CDE90E23174B00220027CDE9A8
:10AF80000623E6E4AFF30080FE822B654715973C6D
:10AF900000000000432EE63FEF39FAFE422EE63F66
:10AFA000396CA80C615C20BED0A4BE726937663EC5
:10AFB000F16BD2C541BDBB3E2CDE25AF6A56113FB9
:10AFC00093BDBE166CC1663F3E5555555555C53FA0
:10AFD00059F3F8C21F6EA5010000F03F0000F0BF5A
:10AFE000FFFF8F40FFFF0F00FFCB904000346F3F0B
:10AFF0006B4B9E427FF766AC6A4B9E423FF713ACA9
:10B000000022684B10F05AFF57A3D3E900230646ED
:10B010000F4611F007F956A3D3E90023804689466D
:10B020003046394611F0FEF8002282468B465E4BD0
:10B030003046394611F0F6F802460B464EA1D1E9EA
:10B04000000110F03BFF32463B4611F0EBF80246A0
:10B050000B460020554910F031FF3246CDE9020180
:10B060003B463046394611F0DDF802460B46DDE935
:10B07000020111F0D7F842A3D3E9002311F0D2F86E
:10B0800002460B465046594610F018FF02460B4642
:10B0900006460F464046494610F012FF42464B46D0
:10B0A000002082468B4610F009FF02460B463046D0
:10B0B000394610F003FF80468946D4E542464B46A8
:10B0C0000020384911F0D8F9FFF770BBDDE9040121
:10B0D0002DA3D3E9002311F0A5F82BA3D3E9002376
:10B0E00011F0A0F8FFF762BBBEF1000F7FF469AB6F
:10B0F000C3F1140347FA03F202FA03F39F422AD082
:10B100007446FFF736BB294B98453FF70EAEDDE995
:10B1100002239246934638E602460B4610F0CEFED6
:10B1200002460B4611F0A8F9FFF740BB18A3D3E97C
:10B130000023CDE9082318A3D3E90023CDE90E238A
:10B140001B4B00224FF48027CDE9062301E45A4629
:10B1500001F05AFDC9E602F00102C2F10204FFF754
:10B1600008BB00BFAFF30080000000604715F73F49
:10B1700044DF5DF80BAE543E555555555555D53FFA
:10B18000FE822B654715F73F9C7500883CE4377EAF
:10B190000000004003B8E23F06D0CF43EBFD4C3E39
:10B1A000FEFFEF3F0000F03F0000D03F0000E03F17
:10B1B0000000F83F000000002DE9F04F9A4E21F00A
:10B1C0000047B74291B040F38E809246974A97422B
:10B1D0000C4626DC00298AA3D3E9002340F3B4817E
:10B1E00010F06CFE924B9F4204460D4600F090809A
:10B1F00085A3D3E9002310F061FE02460B46CAE99D
:10B2000000232046294610F059FE7FA3D3E90023EE
:10B2100010F054FE0125CAE90201284611B0BDE82C
:10B22000F08F844A974240F39080834A974265DCCE
:10B230003D15A5F21645A7EB055319461F460646D0
:10B2400011F0A0FA10F088FF8046894602460B46AE
:10B2500030463946CDE90A8910F030FE0022774B9E
:10B2600010F0E0FF8946804611F08CFA10F074FF70
:10B2700002460B4606460F4640464946CDE90C6756
:10B2800010F01CFE00226D4B10F0CCFF00220023BA
:10B29000CDE90E0111F02EFA002800F07381002391
:10B2A00030463946002211F025FA002814BF012348
:10B2B0000223634A019202212A4600910AA85146BC
:10B2C00000F086FB002C054614DADAF80420DAF8E0
:10B2D0000C3002F1004203F100434542CAF8042059
:10B2E000CAF80C3006E0C2E9000100250024C2E9DA
:10B2F00002450025284611B0BDE8F08F02460B46F6
:10B3000010F0DCFD0025CAE90201CAE90001F1E7FD
:10B310003FA3D3E9002310F0D1FD3FA3D3E90023DD
:10B320000D46044610F0CAFD02460B46CAE900234A
:10B330002946204610F0C2FD37A3D3E9002310F0C0
:10B34000BDFD0125CAE90201D4E711F0C1FC34A317
:10B35000D3E900238046894610F064FF0022394B70
:10B3600010F0AEFD11F00EFA054610F0F5FE24A324
:10B37000D3E90023CDE9040110F054FF02460B4647
:10B380004046494610F09AFD1FA3D3E900238046AA
:10B390008946DDE9040110F045FF1F2DCDE90201CA
:10B3A00054DC294B6A1E53F822309F424ED002468D
:10B3B0000B464046494610F081FD02460B46CAE95D
:10B3C000002383460E465A4633464046494610F00F
:10B3D00075FDDDE9022310F071FD002C02460B46DD
:10B3E000CAE9022386DA5B4606F1004601F1004114
:10B3F0008AE84800CAF80C10CAF808006D4279E7DC
:10B4000000004054FB21F93F3163621A61B4D03D22
:10B410000000601A61B4D03D7370032E8A19A33BFB
:10B4200083C8C96D305FE43FFB21E93F7BD902400F
:10B43000FB21F93FFB213941FFFFEF7F0000704105
:10B4400074F801080000E03FF4F70108DDE9022389
:10B450004046494610F032FD3A15C1F30A53D31A5B
:10B46000102B83460E460992CAE90001ABDD58A3B2
:10B47000D3E90023DDE9040110F0D4FE06460F46AF
:10B4800002460B464046494610F018FDCDE906013C
:10B4900002460B464046494610F010FD32463B46F8
:10B4A00010F00CFD4CA3D3E9002306460F46DDE95E
:10B4B000040110F0B7FE32463B4610F0FFFCDDE918
:10B4C0000689CDE9020102460B464046494610F086
:10B4D000F5FC0B46C1F30A570E460999CF1B0246ED
:10B4E000312F8346CAE900236CDD3DA3D3E9002355
:10B4F000DDE9040110F096FE06460F4602460B46B3
:10B5000040464946CDE9068910F0D8FC02460B4674
:10B5100080468946DDE9060110F0D0FC32463B4604
:10B5200010F0CCFC30A3D3E9002306460F46DDE93A
:10B53000040110F077FE32463B4610F0BFFC024695
:10B540000B46CDE9022334E710F0BAFC2A4B9F42A8
:10B5500004460D4618D026A3D3E9002310F0B0FC12
:10B5600002460B46CAE900232946204610F0A6FCF5
:10B570001FA3D3E9002310F0A3FC4FF0FF35CAE965
:10B580000201B7E6032394E611A3D3E9002310F0E8
:10B5900097FC11A3D3E900230D46044610F090FC5C
:10B5A00002460B46CAE900232946204610F086FCD5
:10B5B00009A3D3E9002310F083FC4FF0FF35CAE95B
:10B5C000020197E6DDE90689FDE600BFAFF30080E2
:10B5D0000000601A61B4D03D7370032E8A19A33B3A
:10B5E0000000002E8A19A33BC14920259A837B398C
:10B5F0003163621A61B4D03DFB21F93F00000000C5
:10B60000574A2DE9F84F21F0004890450E4607466D
:10B610002BDC544B0029B4BF534D544D98454FF08B
:10B62000000410DC524B98456EDC4BA3D3E9002399
:10B6300010F046FC00224F4B11F084F8D8B1384688
:10B640003146BDE8F88F4C4B984579DD4B4B98451A
:10B6500043DD013398453DD0384631463EA3D3E91A
:10B66000002310F0DFFDBDE8F88F02460B4610F016
:10B6700027FCBDE8F88F3846314611F029FB01F070
:10B6800083F806460F4632463B463046394610F0B0
:10B6900017FC324682468B463B463046394610F010
:10B6A000C1FD002280468946324B3046394610F0B3
:10B6B00007FC02460B464046494610F0DDFE0246B6
:10B6C0000B465046594610F0F9FB22462B4610F027
:10B6D000A9FDCEE72A4B9842BED83846314611F034
:10B6E000F7FA0022214B10F09DFDFEF721FC0646E3
:10B6F0000F4602460B462046294610F093FD32467F
:10B700003B4610F08FFDB4E711F0E2FA01F03CF88F
:10B710001C4B984506460F46B5DD0022154B10F030
:10B72000CFFB02460B463046394610F0A5FE3246A6
:10B730003B4610F0C5FB22462B4610F073FD98E700
:10B7400011F0C6FAFEF7F4FB02460B4620462946E6
:10B7500010F068FD8DE700BF3374AC3C1F7BAC7FFD
:10B76000FFFFEF7FFFFF35400000E0BF0000E03F3C
:10B77000FFFF2F3E0000F03F412E8640CD33864034
:10B780007DF8B98FFFFFEF3F2DE9F04F21F0004624
:10B79000B6F1795F85B00C4692469B4605466BDA5A
:10B7A00010F0F0FF002800F0E8802A4623462846E3
:10B7B000214610F037FD74A3D3E900238046894663
:10B7C00010F030FD72A3D3E9002310F079FB42465C
:10B7D0004B4610F027FD70A3D3E9002310F06EFB59
:10B7E00042464B4610F01EFD6DA3D3E9002310F036
:10B7F00067FB42464B4610F015FD6BA3D3E90023CF
:10B8000010F05CFB42464B4610F00CFD68A3D3E9F8
:10B81000002310F055FB42464B4610F003FDCDE9E6
:10B8200000010022644B4046494610F0FBFCDDE974
:10B83000002306460F464046494610F0F3FC5246A8
:10B84000804689465B462846214610F0EBFC0246BE
:10B850000B464046494610F031FB02460B46304647
:10B86000394610F02BFB02460B460020534910F0DE
:10B8700025FB05B0BDE8F08F02460B4610F0D2FC68
:10B8800041A3D3E900238046894610F0CBFC40A3B6
:10B89000D3E9002310F014FB42464B4610F0C2FCE3
:10B8A0003DA3D3E9002310F009FB42464B4610F0BC
:10B8B000B9FC3BA3D3E9002310F002FB42464B4600
:10B8C00010F0B0FC38A3D3E9002310F0F7FA424699
:10B8D0004B4610F0A7FC36A3D3E9002310F0F0FA92
:10B8E0004B46424610F09EFC354B9E42CDE900018E
:10B8F00097DD344B9E424FF0000238DCA6F5001372
:10B9000000202E4916461F4610F0D8FACDE9020154
:10B910000022294B4046494610F084FC32463B4603
:10B9200010F0CCFADDE9002306460F4640464946B2
:10B9300010F078FC5246804689465B4628462146F0
:10B9400010F070FC02460B464046494610F0B6FA2D
:10B9500002460B463046394610F0B0FA02460B4616
:10B96000DDE9020110F0AAFA05B0BDE8F08F164B30
:10B97000164FCDE902230026CAE71049002005B082
:10B98000BDE8F08FAFF30080D43888BEE9FAA8BDD7
:10B99000C4B1B4BD9EEE213EAD529C804F7E923E1E
:10B9A0009015CB19A001FA3E7751C1166CC1563FD4
:10B9B0004C5555555555A53F0000E03F0000F03F60
:10B9C0003233D33F0000E93F0000E73F0000D23FA1
:10B9D0002DE9F04FADF5197D9C4CA29E9C4D54F87D
:10B9E000264005942646D41E85FB0475E417C4EB57
:10B9F000A50424EAE4741D460893631CA3EB8303A7
:10BA0000013D02EBC30304932B4609940295651B89
:10BA1000F418039006911AD42C4401340DF17808DF
:10BA200000260027DDF88C9208E059F8250010F078
:10BA300093FB0135A542E8E9020108D0002DF4DAB4
:10BA4000013530463946A542E8E90201F6D1059BA9
:10BA5000002B2EDB089B4FEAC309039BA9F10808C2
:10BA6000984420AB9944059B70AA02EBC30B0DF5DB
:10BA7000DC7A029B002BC0F20F83039B4D46A3F19F
:10BA800008040026002775E90223F4E9020110F0FA
:10BA9000C9FB02460B463046394610F011FA4445C0
:10BAA00006460F46EFD1EAE90267DA4509F10809CF
:10BAB000DFD10598089A009000F18043013B9B007C
:10BAC0000CAC191F234402F100520B93039B013A63
:10BAD00021440A9103EBC20B009A98A901EBC2031F
:10BAE000002A53E9284513462BDD01EBC308A8F1D2
:10BAF000A8080DF12C090DF5DC7A0022554B2046E3
:10BB0000294610F08FFB10F03DFE10F025FB0022BF
:10BB1000514B06460F4610F085FB02460B46204669
:10BB2000294610F0CBF910F02DFE78E8022349F8F1
:10BB3000040F3946304610F0C3F9D04504460D468F
:10BB4000DBD1DDF81090204629464A4601F05CF82A
:10BB500000224FF07F5304460D4610F063FBFCF7C4
:10BB6000EFFE00223D4B10F05DFB02460B462046E7
:10BB7000294610F0A3F90D46044610F003FE804656
:10BB800010F0EAFA0B4602462946204610F096F9D4
:10BB90004B46002B06460F4640F3F780009A0CA94F
:10BBA000013AC9F1180351F8225045FA03F101FA9C
:10BBB00003F30CA8EB1A40F82230C9F117058844AA
:10BBC00043FA05F5002D63DD009B002B08F1010809
:10BBD00040F381820C9C002C00F01883012000238C
:10BBE0000CAAC4F1807442F82340009A824219DD05
:10BBF0000CAA0CAC52F820106FF07F42511A44F896
:10BC000020100099023399420CDD1046009A0CA9CD
:10BC100001EB830301EB82011A68821A43F8042BBB
:10BC20008B42F9D1049B002B1ADD049B012B4FF0B2
:10BC3000010440F05882009B5A1E0CAB0CA953F82B
:10BC40002230C3F3160341F8223058E27CF9010890
:10BC5000ABAAAA2A0000703E0000704100002040FC
:10BC6000022D15D132463B460020974910F026F9A7
:10BC700006460F46049A9449002000F0C5FF02468C
:10BC80000B463046394610F019F9022506460F4694
:10BC9000002200233046394610F02CFD002800F029
:10BCA0005282009A059B501E83420FDC02F18043B2
:10BCB000013B0CAA0B9C02EB8303002253F80419EE
:10BCC000A34242EA0102F9D1002A6FD1059B0CAAD6
:10BCD000013B52F82330002B40F033820A9A0123B3
:10BCE00052F8041901330029FAD0009AD31802F14E
:10BCF000010A9A4507933DDC009B0899099A0B4479
:10BD000007990AEB0208994620AB08F1804803EB3B
:10BD1000C9098B18A39A08F1FF3802EB880870AAAA
:10BD200002EBCA0AA39A02EB8303009358F8040FAC
:10BD300010F012FA029B002BE9E802011DDB039BC5
:10BD40004D46A3F108040026002775E90223F4E913
:10BD5000020110F067FA02460B463046394610F0F1
:10BD6000AFF85C4506460F46EFD1009B9845EAE8E0
:10BD70000267DBD1079B0093AEE6009B00260027FD
:10BD80009845EAE80267D1D1F4E706D1009B0CAAF6
:10BD9000013B52F82350ED1514E700224B4B10F0F5
:10BDA000C7FC002840F08281054671E70CA9029586
:10BDB00051F820300499CDF81C80183902460090C3
:10BDC00004916BB900F18043013B0CA800EB8303A5
:10BDD00053F80409013A18390028F9D00092049167
:10BDE000049A3949002000F00FFF009B002B044605
:10BDF0000D46C0F20382DA0070A901EB020B049237
:10BE00000CAA02EB8306DFF8C8900BF10807043692
:10BE10004FF0000856F8040D10F09EF922462B460C
:10BE200010F000FA4B4667E90201424620462946D7
:10BE300010F0F8F90CAB9E4204460D46EAD10DF520
:10BE4000907ACDF80CA0DDF814A04FF00009BAF1FB
:10BE5000000FC0F23D81DFF87C805D4618A1D1E97A
:10BE6000000100260027002403E04C4510DCF8E820
:10BE70000201F5E8022310F0D5F902460B463046E0
:10BE8000394610F01DF80134A24506460F46ECDA9B
:10BE9000039B03EBC903ABF1080BC3E900676EAB6F
:10BEA0005B4509F10109D2D1A29BDDF80CA0032B5F
:10BEB00000F28B80DFE813F0D100900090001000BA
:10BEC00000000040FB21F93F0000F03F0000E03F90
:10BED0000000703ED0E80108009B002B40F3A481D5
:10BEE000049B0AEB0308D8E90067D34658E9029A95
:10BEF00032463B46484651460FF0E2FF04460D46A7
:10BF000002460B46484651460FF0D8FF32463B46A4
:10BF10000FF0D6FFC8E9000168E90245C34526468F
:10BF20002F46E3D1009B012BDA4640F37D81049B31
:10BF30005B44D3E90067984699460DF5947B59E92F
:10BF400002343246184621463B46CDE900010FF047
:10BF5000B7FF04460D4602460B46DDE900010FF02F
:10BF6000ADFF32463B460FF0ABFFC9E9000169E97E
:10BF70000245CB4526462F46E1D1002308F10808AB
:10BF80001D464CAC1846294678E902230FF098FF6D
:10BF9000444503460D46F5D1029A002A00F020815F
:10BFA000DAF80440DAF80C20069FDAF80010DAF824
:10BFB00008003B6105F1004504F1004402F1004234
:10BFC0007D617C60FA603960B860079B03F0070010
:10BFD0000DF5197DBDE8F08F049C0026083454440B
:10BFE00033463046194674E902230FF069FF544581
:10BFF00006460B46F5D1029A30461946002A00F053
:10C00000DA80069803F10044324644600660DAE9BB
:10C0100000010FF053FF0B460099002902460EDD88
:10C02000012410461946FAE902230FF049FF0B4696
:10C0300000990134A1420246F3DA029909B103F1F1
:10C0400000431946069B1046C3E90201079B03F013
:10C0500007000DF5197DBDE8F08F049C002208341F
:10C06000544413461046194674E902230FF028FF82
:10C07000A24502460B46F5D1029909B103F10043EE
:10C080001946069B1046C3E90001079B03F0070011
:10C090000DF5197DBDE8F08F00260027EAE902675B
:10C0A000DA4509F108097FF4E4AC02E5009B002BB6
:10C0B00008F10108C8BF02253FF78CAD32463B4668
:10C0C000002063490FF0FAFE022506460F46DFE521
:10C0D00000260027DCE6049B002B26DD0024049BC1
:10C0E000012B3FF4A8AD022B09D1009B5A1E0CABCB
:10C0F0000CA953F82230C3F3150341F82230022D66
:10C100007FF4C6AD32463B46002051490FF0D6FEC3
:10C1100006460F46002C3FF4BBADABE5009901335A
:10C12000994278D1049B002BD9DC022D7FF4B0AD6D
:10C1300032463B46002046490FF0C0FE06460F46F9
:10C14000A6E50123D1E53946049F02957A4230469F
:10C15000CDF81C8000F058FD00223E4B04460D46F1
:10C1600010F0E6FA002862D000223B4B2046294618
:10C1700010F058F810F006FB06460FF0EDFF002215
:10C18000344B10F04FF802460B46204629460FF07C
:10C1900095FE10F0F7FA00990B4601331A4600930A
:10C1A0003B46183304930B460CA941F82300134671
:10C1B00041F8236014E6069B3246C3E900010B46B2
:10C1C000DAE900010FF07AFE0B46009900290246D9
:10C1D0003FF726AF1946069B1046C3E9020135E733
:10C1E00018462946DAE90023DAE90245069FC7E93D
:10C1F0000401C7E90023C7E90245E6E6A29B032B39
:10C200003FF6E3AEDFE803F0211C1C0E009B012B80
:10C2100088DD0CAA012352F8044F002C3FF47EAFB6
:10C22000581CDDE40DF5907A00231D46B4E629463E
:10C23000204610F0A7FA009A0CA941F82200CFE599
:10C24000002633460DF5907AD5E60022134613E713
:10C250000000F03F000070410000703E0000000050
:10C260002DE9F04F21F00046B6F1795F85B00C461C
:10C2700090469946054604DA10F084FA002800F04A
:10C2800085802A462346284621460FF0CBFF0646E6
:10C290000F4602460B46284621460FF0C3FF3EA339
:10C2A000D3E9002382468B46304639460FF0BAFF69
:10C2B0003BA3D3E900230FF001FE32463B460FF0CB
:10C2C000B1FF39A3D3E900230FF0FAFD32463B4614
:10C2D0000FF0A8FF36A3D3E900230FF0EFFD32469D
:10C2E0003B460FF09FFF34A3D3E900230FF0E8FD96
:10C2F0000E9BCDE900019BB30022334B40464946DB
:10C300000FF090FFDDE90023CDE9020150465946C8
:10C310000FF088FF02460B46DDE902010FF0CEFD6B
:10C3200032463B460FF07EFF42464B460FF0C6FDBD
:10C3300023A3D3E9002306460F46504659460FF083
:10C3400071FF02460B46304639460FF0B9FD0246F2
:10C350000B46284621460FF0B1FD05B0BDE8F08F31
:10C3600002460B46304639460FF05CFF14A3D3E972
:10C3700000230FF0A3FD52465B460FF053FF2A4601
:10C3800023460FF09DFD05B0BDE8F08F28462146FD
:10C3900005B0BDE8F08F00BF7CD5CF5A3AD9E53D56
:10C3A000EB9C2B8AE6E55A3E7DFEB157E31DC73E66
:10C3B000D561C119A0012A3FA6F810111111813FC2
:10C3C000495555555555C53F0000E03F0000000058
:10C3D0002DE9F04FDA4C21F00046A64287B08A469C
:10C3E00089461746984683461ADC10F0CBF9A8BB5D
:10C3F0005B461E43109B0133334300F0A981109B21
:10C40000012B00F0B9815A4653460020CD4910F067
:10C4100033F804460D462046294607B0BDE8F08FA4
:10C42000C94B9E421ADD0029C0F29F815A465346ED
:10C43000A5A1D1E900010FF041FD3A46434604466B
:10C440000D46A3A1D1E900010FF038FD22462B468D
:10C450000FF036FD002783468A46B8465A465346B3
:10C46000584651460FF0DEFE03460C46CDE9003437
:10C4700002460B460FF0D6FEDDE9002304460D46CA
:10C48000584651460FF0CEFE93A3D3E90023CDE9E1
:10C490000201204629460FF0C5FE91A3D3E90023EF
:10C4A0000FF00EFD22462B460FF0BCFE8EA3D3E903
:10C4B00000230FF005FD22462B460FF0B3FE8CA3A0
:10C4C000D3E900230FF0FCFC22462B460FF0AAFE16
:10C4D00089A3D3E900230FF0F3FC22462B460FF08B
:10C4E000A1FE87A3D3E900230FF0EAFCDDE90023D6
:10C4F0000FF098FE84A3D3E90023CDE90401204680
:10C5000029460FF08FFE82A3D3E900230FF0D8FC59
:10C5100022462B460FF086FE7FA3D3E900230FF0BF
:10C52000CFFC22462B460FF07DFE7DA3D3E90023EE
:10C530000FF0C6FC22462B460FF074FE7AA3D3E917
:10C5400000230FF0BDFC22462B460FF06BFE78A3B4
:10C55000D3E900230FF0B4FC02460B46DDE90401E9
:10C560000FF0AEFCDDE902230FF05CFE3A464346D5
:10C570000FF0A6FCDDE900230FF054FE02460B4647
:10C58000384641460FF09CFC6BA3D3E900230446D8
:10C590000D46DDE902010FF045FE22462B460FF065
:10C5A0008FFC0B46024651465846CDE900230FF05A
:10C5B00087FC654B9E4204460D463EDC109B012BDA
:10C5C00036D002460B4600205E490FF055FF00248E
:10C5D0000F4606465A465346204629460FF06EFC43
:10C5E000A04602460B46DDE900010FF067FC42461B
:10C5F0003B460FF017FEA94604460D4642463B4611
:10C60000404649460FF00EFE0022504B0FF058FCFA
:10C6100002460B46204629460FF052FC32463B4666
:10C620000FF000FE42463B460FF04AFC04460D4622
:10C630002046294607B0BDE8F08F10980FF08CFD1A
:10C64000224606460F462B46204629460FF0EAFDB5
:10C650003246CDE902013B46204629460FF030FC28
:10C6600002460B46DDE902010FF006FFDDE900237B
:10C670000FF024FC02460B46584651460FF01EFCB4
:10C6800002460B460FF01CFC02460B46304639466C
:10C690000FF014FC04464FEAA97000F00200C0F14C
:10C6A00001000D460FF058FD02460B462046294674
:10C6B0000FF0B8FD04460D462046294607B0BDE8F8
:10C6C000F08F00BFAFF30080182D4454FB21E93FE9
:10C6D000075C143326A6813CD47ABF74702AFB3ED3
:10C6E000E9A7F0320FB8123F68108D1AF726303FD5
:10C6F0001583E0FEC8DB573F93846EE9E326823F53
:10C70000FE41B31BBAA1AB3F735360DBCB75F3BEE5
:10C71000A69237A0887E143F0165F2F2D844433FC9
:10C72000280356C9226D6D3F37D60684F464963FC0
:10C730007AFE10111111C13F635555555555D53F1E
:10C74000FFFF2F3E0000F0BF2794E53F0000F03FC1
:10C750005846514610F0BCFA02460B4600200849E4
:10C760000FF08AFE04460D4662E701F1004308F12E
:10C77000004883469A4659E65C46554658E700BF4E
:10C780000000F03F000000002DE9F04FD24A21F0F8
:10C790000043934285B00C460E4605462DD9CF4A3C
:10C7A00093421AD8002E80F21681B5A3D3E9002354
:10C7B000284621460FF084FB002200230FF0A4FF3F
:10C7C000C0B9B1A3D3E90023284621460FF02AFDC2
:10C7D00002460B460020C24908E1C24A934240F299
:10C7E000D0800346C1F31302134340F0F6810029C1
:10C7F00080F2C4800020BC49C0E0BC4A934200F2F1
:10C800002981BB4A934240F2DE800023019300223B
:10C81000B84B284621460FF005FD06460F46024656
:10C820000B46284621460FF0FDFC99A3D3E90023CF
:10C8300082468B460FF0F6FC97A3D3E900230FF056
:10C840003FFB52465B460FF0EDFC95A3D3E9002376
:10C850000FF034FB52465B460FF0E4FC92A3D3E9A1
:10C8600000230FF02DFB52465B460FF0DBFC90A33C
:10C87000D3E900230FF022FB52465B460FF0D2FCB7
:10C8800000229D4B0FF01CFB8046894602460B465A
:10C89000304639460FF0C6FC02460B460020974949
:10C8A0000FF00CFB064602460B460F464046494633
:10C8B0000FF004FB3246804689463B462846214617
:10C8C0000FF0B0FC02460B4600208D490FF0F6FA3F
:10C8D00002460B46404649460FF0CEFD52465B46A7
:10C8E0000FF0A0FC019E02460B46002E38D0DDE979
:10C8F000026732463B460FF0E1FA2A4623460FF024
:10C9000091FC32463B460FF0D9FA5B4652460FF097
:10C91000D5FA019B013306460F4600F00F81019BBB
:10C92000012B00F0F180019B0133392B39D8019B99
:10C93000132B40F31281019FC7F57F760336002247
:10C9400033050FF0BDFA02460B46284621460FF08C
:10C95000B5FA0022684B0FF0B3FA01EB07510DE076
:10C96000284621460FF05EFC52465B460FF0A6FAC1
:10C9700002460B46284621460FF0A0FA05B0BDE856
:10C98000F08F4DA3D3E900230FF0DCFE00283FF425
:10C9900009AF4BA3D3E90023104619460FF042FC20
:10C9A000ECE72A4623460FF089FA02460B460020A0
:10C9B00051490FF083FA019A4F4B01EB02510022CB
:10C9C0000FF07CFADAE73EA3D3E900230FF078FA00
:10C9D00002460B46CAE72CA3D3E90023284621468A
:10C9E0000FF020FC0B464349024600200FF068FA86
:10C9F0000FF0C8FE01900FF0AFFB33A3D3E9002383
:10CA000006460F460FF00EFC02460B46284621460E
:10CA10000FF054FA2EA3D3E900238046894630460E
:10CA200039460FF0FFFB06460F4632463B4640466E
:10CA300049460FF043FA02460B4605460C4640466F
:10CA400049460FF03BFA32463B460FF037FACDE944
:10CA50000201DCE62B4A934200F2978000291AA3D8
:10CA6000D3E90023C0F2AE800FF028FA01238046FC
:10CA70008946019316A7D7E90067D6E7AFF3008090
:10CA800059F3F8C21F6EA501FE822B654715F73FCB
:10CA90002DC3096EB7FD8ABE3952E686CACFD03E95
:10CAA000B7DBAA9E19CE143F8555FE19A0015A3F47
:10CAB000F41011111111A13FEF39FAFE422E8640F8
:10CAC0009C7500883CE4377E0000E0FE422EE63F85
:10CAD000763C7935EF39EA3D79684340412E86400E
:10CAE0000000E0BFFFFFEF7F0000F0BF422ED63F07
:10CAF000FFFF8F3C0000E03F0000F03F00000840D7
:10CB000000001840B1A2F03F2846214600223A4BCF
:10CB10000FF0FAFD002846D0284621460022374B68
:10CB20000FF0CEF902460B46304639460FF0C6F9F3
:10CB300000224FF040430FF075FB1FE732463B46A3
:10CB4000284621460FF0BAF900222C4B0FF06AFB61
:10CB500000222A4B0FF0B2F910E7019E4FF4001E9D
:10CB60004EFA06FE2A462346CEF17F570FF0A6F96D
:10CB7000002607F5401702460B46304639460FF0AF
:10CB80009DF9019E01EB0651F8E617A3D3E90023B6
:10CB90000FF048FB002C02460B464FF00000FFF65A
:10CBA0001AAE164922E732463B46284621460FF088
:10CBB00085F902460B460FF083F90022104B0FF067
:10CBC0007FF9DBE60FF07CF94FF0FF3380468946B2
:10CBD000019307A7D7E9006727E702460B460FF046
:10CBE0006FF9CBE6AFF30080FE822B654715F73F68
:10CBF000763C7935EF39EABD0000D0BF0000E03F58
:10CC00000000F03F00000000F8B5C1F30A560446EA
:10CC10000D460B4617460EBB21F0004303438646E4
:10CC200025D00022344B0FF0FDFA344A97420446D7
:10CC30000D460B462ADBC1F30A56363E3E4440F20F
:10CC4000FE72964228DC002E12DD23F0FF4323F40F
:10CC5000E00343EA065520462946F8BD40F2FF723C
:10CC60009642EBD102460B460FF02AF9F8BDF8BD0B
:10CC700016F1350F1DDA4CF250339F4222462B46F7
:10CC800025DC19A1D1E9000111F0CAF816A3D3E9F6
:10CC900000230FF0C7FAF8BD22462B4614A1D1E9B4
:10CCA000000111F0BDF812A3D3E900230FF0BAFA86
:10CCB000F8BD23F0FF4323F4E003363643EA06557C
:10CCC0002046294600220E4B0FF0ACFAF8BD08A111
:10CCD000D1E9000111F0A4F805A3D3E900230FF076
:10CCE000A1FAF8BDAFF3008059F3F8C21F6EA50199
:10CCF0009C7500883CE4377E00005043B03CFFFF49
:10CD00000000903C10B5054C237833B9044B13B1A7
:10CD10000448AFF300800123237010BD10040020ED
:10CD200000000000A4FD01080C4B43B10C480D4964
:10CD300010B5AFF300800C48036823B910BD0A4852
:10CD4000036833B97047094B002BF7D0BDE810409A
:10CD50001847064B002BF5D0184700BF0000000015
:10CD6000A4FD01081404002090030020000000002E
:10CD700008B500F077FFFCF7A7F8BDE8084000F021
:10CD800037BD00BF08B500F06DFFFCF70DF9BDE839
:10CD9000084000F02DBD00BF08B500F063FF10F0A3
:10CDA0000DF8BDE8084000F023BD00BF08B500F055
:10CDB00059FF10F005FDBDE8084000F019BD00BFA7
:10CDC00008B500F04FFFFCF78FF8BDE8084000F011
:10CDD0000FBD00BF08B500F045FF10F0A7F9BDE892
:10CDE000084000F005BD00BF08B500F03BFFFBF7B1
:10CDF000CBFABDE8084000F0FBBC00BF08B500F06E
:10CE000031FF10F0E7F8BDE8084000F0F1BC00BFCA
:10CE100070B5049E96420C4628DB15466BB1002A7D
:10CE200000EB020107DD2046A21811F8013D00F8D1
:10CE3000013B9042F9D1002070BD042A0FD0022A94
:10CE400002D110F0010306D001462A46204604F024
:10CE50006FF9002070BD02880A80184670BD10F07E
:10CE60000303F1D102680A60184670BD084600212C
:10CE700005F0B6F94FF0FF3070BD00BF08307047C5
:10CE800040B1002905DB4368994202DA0844007A80
:10CE900070470020704700BF30B1002904DB4368B1
:10CEA0009942BCBF40180272704700BF002B23DBC1
:10CEB000002921DB70B54668B1421ADC5568761A44
:10CEC0001446EA1AB242A8BF3246002A11DB844255
:10CED0000D4607D0083408300844E11804F028F95A
:10CEE000002070BD0834E118601911F0D4F800205A
:10CEF00070BD4FF0FF3070BD4FF0FF30704700BF86
:10CF00004068704710B4141E0FDB426894420CDC7A
:10CF100033EA230328BF1346121B08309A422044E9
:10CF2000A8BF1A4610BC05F05BB910BC704700BF23
:10CF300043688B4210B400F108041846A8BF0846A5
:10CF400032EA220128BF19461B1A99422044A8BF81
:10CF5000194610BC00F07CBA002BBCBF43689B1A7A
:10CF6000002A70B50E4620DB44689918A1421CDCEB
:10CF70008A421ADCCBB136F0004116D059428E42BB
:10CF800014DDB34212DD0830002E00EB020515DB84
:10CF90009C1B2246A919284611F07DF83246281913
:10CFA0000021BDE8704005F01BB970BD002211469C
:10CFB0004FF0FF33BDE87040FFF7A4BF74429A19E9
:10CFC0002946281911F067F8224628460021BDE8B5
:10CFD000704005F005B900BF70B5044600206168D7
:10CFE000490000F011FA6668002E11DD094D04F1C8
:10CFF000080100EB4606034611F8012B141102F05C
:10D000000F022C5DAA5C9C71DA7102339E42F3D14F
:10D0100070BD00BF18E90108002BBCBF43689B1A14
:10D02000002A2FDB70B445689C18AC4229DCA24270
:10D0300027DC33B331F0004423D00029B8BF01EB23
:10D04000032191FBF3F603FB1616002E00F10800F6
:10D05000B8BFF61802441644B242134411D0304609
:10D0600004E0B24208460ED090420AD0014614783D
:10D0700011F8015B02F8015B8B420470F1D130467C
:10D08000F2E770BC70470E46EEE700BF00B583B014
:10D090004FF0FF3300930023FFF708FF03B05DF864
:10D0A00004FB00BF0146002000F0D2B930B5013AC0
:10D0B00083B004460D460F2A16D8DFE802F0171792
:10D0C000838D94172E08081F424D5C3674621846F3
:10D0D00000F058FE012DADF8000005DD9DF80020A0
:10D0E0009DF801302370627003B030BD184600F027
:10D0F00049FE002DF8DD207003B030BD184600F069
:10D1000041FE032D0090EFDD6A46231D12F8011B3E
:10D1100003F8011D9C42F9D1E6E7184600F032FE03
:10D12000002DC0B2E0DD2070E6E7184600F09AFD61
:10D13000072DCDE90001D7DD6B4603CB2060616090
:10D14000D2E7184600F0B6FD032DCDDDA3070CBFD6
:10D150002060206003B030BD184600F0ABFD032D09
:10D160000090C1DD6A46231D12F8011B03F8011D62
:10D170009C42F9D1B8E7184600F096FE032DE5DC95
:10D18000B2E7184600F06EFD072DCDE90001ABDDDA
:10D190000DF1FF3204F1080312F8011F03F8011D1D
:10D1A000A342F9D1A0E7184600F07EFE032D0090BF
:10D1B0009ADD6A46231D12F8011B03F8011DA342E4
:10D1C000F9D191E7184600F0DDFD012D8CDDE20775
:10D1D00054BF2080208087E7184600F0D3FD012D42
:10D1E00082DD80B2F3E7184600F0CCFD032DADDC04
:10D1F0007AE700BF30B4141E07DB456808300A46E2
:10D200002044291B30BCFFF751BF30BC704700BF22
:10D2100000B5013A85B00F2A00F28880DFE802F0FD
:10D220001623303D4A56595C5F62657174808308ED
:10D230000091012308220DEB0201FFF7E9FDDDE972
:10D24000020100F0D5FA05B05DF804FB009100235F
:10D25000012202A9FFF7DCFD9DF9080000F090FB18
:10D2600005B05DF804FB00910023012202A9FFF73D
:10D27000CFFD9DF8080000F083FB05B05DF804FBCE
:10D2800000910023022202A9FFF7C2FDBDF90800A8
:10D2900000F076FB05B05DF804FB0091002302224C
:10D2A00002A9FFF7B5FDBDF8080000F069FB05B065
:10D2B0005DF804FB00910023042202A9FFF7A8FDFA
:10D2C000029800F05DFB05B05DF804FB01230091BE
:10D2D000BEE701230091C8E700910123D2E7009146
:10D2E0000123DCE700910123E6E7009100230422FB
:10D2F00002A9FFF78DFD029800F04CFB05B05DF828
:10D3000004FB00910123F2E700910023042202A90B
:10D31000FFF77EFD029800F02BFB05B05DF804FBE3
:10D320000091002386E700910123EFE700208AE7C0
:10D33000131E08DB10B4446808300A461844E11A8A
:10D3400010BCFFF765BF002000F01ABB02F016BA50
:10D3500002F068BA0AF0AABBC11702F075B900BFA3
:10D3600002F086B902F096B902F006BA18B18188C7
:10D37000063002F0EBBC704701F0CCB9012001F09F
:10D3800027BC00BF00207047704700BF80880C306A
:10D39000800870470320704740680B308008704752
:10D3A000054B1B682BB15A688242FAD19A688A42AF
:10D3B000F7D11846704700BF2C0400202DE9F0413A
:10D3C000104F3B6813B90AE01B6843B15C68A04288
:10D3D000FAD19C68A142F7D1DA60BDE8F081044639
:10D3E000102090460D4610F01CFE3B68064680E873
:10D3F0003800012140F80C8F01F050FC3E60BDE880
:10D40000F08100BF2C04002070B50D1E064602DB23
:10D4100035B90D4870BD10F08CFE0546002DF8D0D2
:10D4200005F1090001F0DEFB044608B1074B03607B
:10D43000A58026B131462A46A01D03F079FE254479
:10D440000023AB71204670BDF0E9010830E7010808
:10D4500070B50D1E12DD064605F1080001F0C2FB95
:10D46000044608B1084B036065602A46314604F162
:10D4700008002EB103F05CFE204670BD034870BD6D
:10D4800004F0AEFE204670BDD0E60108E4E90108D4
:10D49000014B1860704700BF9801002030B40E4D5A
:10D4A0002A68044621460020930983EAD273534038
:10D4B00083EA121383EA92035208534042EAC3728A
:10D4C00002F00103490843EA4000EDD18442E9D368
:10D4D0002A6030BC704700BF98010020002101483D
:10D4E000FFF792BFC0EB010800B583B002AB00228A
:10D4F000ADF8042003F8040D01211846FFF784FF5E
:10D5000003B05DF804FB00BF00B583B020B1002973
:10D5100002DB8388994206DB00210A48FFF774FF8B
:10D5200003B05DF804FB014402A88B790022ADF83A
:10D530000420012100F8043DFFF766FF03B05DF809
:10D5400004FB00BFC0EB010870B50D46F8B10446FE
:10D55000818825B321B1AB882BB92646304670BDF2
:10D560002E46304670BD19440020FFF74DFF831D45
:10D570000646A288A11D184603F0DAFD0346A088DE
:10D58000AA881844A91D03F0D3FD304670BD69B1C7
:10D59000AB88084C4FF46951002BDED0E3E719B19A
:10D5A00001F56951034DDFE7024ED7E7014C4FF417
:10D5B000E941F7E744EA010888420AD008B5063194
:10D5C000063010F0ACFD002805DB14BF0120002060
:10D5D00008BD002070474FF0FF3008BD80887047BD
:10D5E0002DE9F04F0378202B83B00446894603D100
:10D5F00014F8013F202BFBD02B2B08BF013494F8EB
:10D6000000E0BEF12D0F00F08680564B0022BEF1E7
:10D61000300FCDE9002300F08A80BEF1000F00F04A
:10D620009D804FF00008002600274FF0000ADFF829
:10D6300038B11CE00EF0F6FD06460F4628460EF007
:10D640008BFD32463B460EF03BFC524606460F46EB
:10D650005B46DDE90001B8F1000F03D00EF00CFFCE
:10D66000CDE9000114F801EFBEF1000F14D0AEF1C6
:10D670003005092D52465B4630463946DAD9B8F1B5
:10D68000000F18D1BEF12E0F15D114F801EF4FF095
:10D690000108BEF1000FEAD132463B46DDE9000148
:10D6A0000EF0C0FD06460F46C9F800403046394628
:10D6B00003B0BDE8F08F0EF0DF0EBEF1450F08D0CD
:10D6C0002378202B03D114F8013F202BFBD0002B13
:10D6D00041D1DDE90023304639460EF0A3FD237821
:10D6E00006460F46002BDFD04946601C0A2210F088
:10D6F000F1FB1D49024600200FF0F4F802460B46EC
:10D70000304639460EF08EFD06460F463046394605
:10D7100003B0BDE8F08F94F801E0144B0022BEF195
:10D72000300FCDE9002304F101047FF476AF637874
:10D7300043F02003782B7FF474AF10224946204633
:10D7400010F0C8FB0EF008FDDDE900230EF06AFDC5
:10D7500006460F46AAE70026054FA7E70026002742
:10D760009AE700BF0000F03F000024400000F0BF37
:10D770000000F87F0B46111E10DD10B48488002BCA
:10D78000BCBF1B1923EAE373E41AA14200F10600AF
:10D79000A8BF2146184410BCFFF736BE002101483F
:10D7A000FFF732BEC0EB010898B191B1002A10DB3F
:10D7B0008B8810B584881344A34207DC841DA0180D
:10D7C000063110F0BEFC08B1001B10BD4FF0FF3059
:10D7D00010BD4FF0FF30704708B5FFF7E5FF01308F
:10D7E00018BF012008BD00BFB0FA80F040097047A3
:10D7F00038B50C1E034612D1002845D002460B4610
:10D800000C4605460EF0A8FF00283FD10C2001F081
:10D81000E9F908B11E4B03604560846038BDC4F36C
:10D820000A55A5F2FF321D2A25D8142A0DDC00283E
:10D83000E4D1A5F2F33514FA05F3DFD1E002C2F129
:10D840001F0240F00040D0400EE0A5F2134510FA50
:10D8500005F5D3D1E002C2F11F0140F00040C2F152
:10D860003402C840D3401843002CB8BF40424000A7
:10D8700040F0010038BD1E2AC0D10028BED1054BA2
:10D880009C42BBD1044838BD012038BD0E2038BDB4
:10D8900000E701080000D0C101000080F0B5074694
:10D8A00083B0841D204601A9FFF79AFEBA88019B28
:10D8B0001444A34207D0214E002528463146FFF7E5
:10D8C00097FF03B0F0BD0022002305460E460EF080
:10D8D00011FF0028F1D126F00044284621464FF0E0
:10D8E000FF32174B4FF001070EF036FF40B92846C4
:10D8F00021464FF0FF32124B0EF024FF00B90746CD
:10D9000017F0FF0F14D12846214600224FF4801350
:10D910004FF001070EF020FF38B9284621460022BB
:10D920004FF480130EF0F0FE28B117F0FF0FC4D0B3
:10D93000024E0025C1E70746F7E700BF0000F87F69
:10D94000FFFFEF7F08B50EF007FCBDE80840FFF7CA
:10D950004FBF00BF50B1002908DB8388994205DA28
:10D9600008448079400040F0010070470E20704765
:10D9700008B50EF003FCBDE80840FFF739BF00BF53
:10D980004300B0EB630F01D0FFF7DCBF43F00100B1
:10D99000704700BFB0F1804F08B503D2400040F09F
:10D9A000010008BD0EF0C8FBBDE80840FFF720BF2E
:10D9B000002814BF42200A20704700BF08B5FAF7BC
:10D9C000B7FCBDE80840FFF713BF00BF01FB00F044
:10D9D000704700BF90FBF1F0704700BF10B50C20FE
:10D9E00001F000F9044608B101F0F6FB204610BD35
:10D9F00000897047043001F001BB00BF01F094BB07
:10DA000001F098BB01F0A4BB01F0B2BB01F0A8BBD0
:10DA100001F0AABB01F0B0BB01F0D0BB024B1B6808
:10DA2000588CC000704700BF50040020144B10B445
:10DA30001C682368984220D063B1002300E04AB1FB
:10DA4000023354F823208242F9D101339B00E0587D
:10DA500010BC70470B4B1B685C6A236898420CD063
:10DA600043B1002300E02AB1023354F8232090424E
:10DA7000F9D1EAE7084610BC70470423E7E700BF86
:10DA8000C83F00085004002040687047416070475C
:10DA900010B5082001F0A6F8044608B101F0A6FB75
:10DAA000204610BD70B50C1E054616460EDB838859
:10DAB0009C420BDA05EB8404E36823B10B2140F2AE
:10DAC000863001F0DDFBE660284670BD0A2140F299
:10DAD000863001F0D5FBEDE704F0C2BC18B18388B5
